{
  "contractName": "HealthCare",
  "abi": [
    {
      "inputs": [],
      "payable": false,
      "stateMutability": "nonpayable",
      "type": "constructor"
    },
    {
      "anonymous": false,
      "inputs": [
        {
          "indexed": false,
          "internalType": "uint256",
          "name": "ID",
          "type": "uint256"
        },
        {
          "indexed": false,
          "internalType": "string",
          "name": "testName",
          "type": "string"
        },
        {
          "indexed": false,
          "internalType": "string",
          "name": "date",
          "type": "string"
        },
        {
          "indexed": false,
          "internalType": "string",
          "name": "hospitalName",
          "type": "string"
        },
        {
          "indexed": false,
          "internalType": "uint256",
          "name": "price",
          "type": "uint256"
        }
      ],
      "name": "recordCreated",
      "type": "event"
    },
    {
      "anonymous": false,
      "inputs": [
        {
          "indexed": false,
          "internalType": "uint256",
          "name": "ID",
          "type": "uint256"
        },
        {
          "indexed": false,
          "internalType": "string",
          "name": "testName",
          "type": "string"
        },
        {
          "indexed": false,
          "internalType": "string",
          "name": "date",
          "type": "string"
        },
        {
          "indexed": false,
          "internalType": "string",
          "name": "hospitalName",
          "type": "string"
        },
        {
          "indexed": false,
          "internalType": "uint256",
          "name": "price",
          "type": "uint256"
        }
      ],
      "name": "recordSigned",
      "type": "event"
    },
    {
      "constant": true,
      "inputs": [
        {
          "internalType": "uint256",
          "name": "",
          "type": "uint256"
        }
      ],
      "name": "_records",
      "outputs": [
        {
          "internalType": "uint256",
          "name": "ID",
          "type": "uint256"
        },
        {
          "internalType": "uint256",
          "name": "price",
          "type": "uint256"
        },
        {
          "internalType": "uint256",
          "name": "signatureCount",
          "type": "uint256"
        },
        {
          "internalType": "string",
          "name": "testName",
          "type": "string"
        },
        {
          "internalType": "string",
          "name": "date",
          "type": "string"
        },
        {
          "internalType": "string",
          "name": "hospitalName",
          "type": "string"
        },
        {
          "internalType": "bool",
          "name": "isValue",
          "type": "bool"
        },
        {
          "internalType": "address",
          "name": "pAddr",
          "type": "address"
        }
      ],
      "payable": false,
      "stateMutability": "view",
      "type": "function"
    },
    {
      "constant": true,
      "inputs": [
        {
          "internalType": "uint256",
          "name": "",
          "type": "uint256"
        }
      ],
      "name": "recordsArr",
      "outputs": [
        {
          "internalType": "uint256",
          "name": "",
          "type": "uint256"
        }
      ],
      "payable": false,
      "stateMutability": "view",
      "type": "function"
    },
    {
      "constant": false,
      "inputs": [
        {
          "internalType": "uint256",
          "name": "_ID",
          "type": "uint256"
        },
        {
          "internalType": "string",
          "name": "_tName",
          "type": "string"
        },
        {
          "internalType": "string",
          "name": "_date",
          "type": "string"
        },
        {
          "internalType": "string",
          "name": "hName",
          "type": "string"
        },
        {
          "internalType": "uint256",
          "name": "price",
          "type": "uint256"
        }
      ],
      "name": "newRecord",
      "outputs": [],
      "payable": false,
      "stateMutability": "nonpayable",
      "type": "function"
    },
    {
      "constant": false,
      "inputs": [
        {
          "internalType": "uint256",
          "name": "_ID",
          "type": "uint256"
        }
      ],
      "name": "signRecord",
      "outputs": [],
      "payable": false,
      "stateMutability": "nonpayable",
      "type": "function"
    }
  ],
  "bytecode": "0x608060405234801561001057600080fd5b50336000806101000a81548173ffffffffffffffffffffffffffffffffffffffff021916908373ffffffffffffffffffffffffffffffffffffffff1602179055507353c05a9db0e6b4ed22be4efaa2ddeb822469c091600160006101000a81548173ffffffffffffffffffffffffffffffffffffffff021916908373ffffffffffffffffffffffffffffffffffffffff160217905550610ebf806100b56000396000f3fe608060405234801561001057600080fd5b506004361061004c5760003560e01c806317aa7fcb14610051578063549b39fc1461024e578063a508d0ed14610290578063ee96b9eb146102be575b600080fd5b61024c600480360360a081101561006757600080fd5b81019080803590602001909291908035906020019064010000000081111561008e57600080fd5b8201836020820111156100a057600080fd5b803590602001918460018302840111640100000000831117156100c257600080fd5b91908080601f016020809104026020016040519081016040528093929190818152602001838380828437600081840152601f19601f8201169050808301925050505050505091929192908035906020019064010000000081111561012557600080fd5b82018360208201111561013757600080fd5b8035906020019184600183028401116401000000008311171561015957600080fd5b91908080601f016020809104026020016040519081016040528093929190818152602001838380828437600081840152601f19601f820116905080830192505050505050509192919290803590602001906401000000008111156101bc57600080fd5b8201836020820111156101ce57600080fd5b803590602001918460018302840111640100000000831117156101f057600080fd5b91908080601f016020809104026020016040519081016040528093929190818152602001838380828437600081840152601f19601f82011690508083019250505050505050919291929080359060200190929190505050610490565b005b61027a6004803603602081101561026457600080fd5b810190808035906020019092919050505061075a565b6040518082815260200191505060405180910390f35b6102bc600480360360208110156102a657600080fd5b810190808035906020019092919050505061077b565b005b6102ea600480360360208110156102d457600080fd5b8101908080359060200190929190505050610ba8565b60405180898152602001888152602001878152602001806020018060200180602001861515151581526020018573ffffffffffffffffffffffffffffffffffffffff1673ffffffffffffffffffffffffffffffffffffffff168152602001848103845289818151815260200191508051906020019080838360005b83811015610380578082015181840152602081019050610365565b50505050905090810190601f1680156103ad5780820380516001836020036101000a031916815260200191505b50848103835288818151815260200191508051906020019080838360005b838110156103e65780820151818401526020810190506103cb565b50505050905090810190601f1680156104135780820380516001836020036101000a031916815260200191505b50848103825287818151815260200191508051906020019080838360005b8381101561044c578082015181840152602081019050610431565b50505050905090810190601f1680156104795780820380516001836020036101000a031916815260200191505b509b50505050505050505050505060405180910390f35b60006002600087815260200190815260200160002090506002600087815260200190815260200160002060060160009054906101000a900460ff16156104d557600080fd5b338160060160016101000a81548173ffffffffffffffffffffffffffffffffffffffff021916908373ffffffffffffffffffffffffffffffffffffffff16021790555085816000018190555084816003019080519060200190610539929190610de5565b5083816004019080519060200190610552929190610de5565b508281600501908051906020019061056b929190610de5565b5081816001018190555060018160060160006101000a81548160ff0219169083151502179055506000816002018190555060038690806001815401808255809150509060018203906000526020600020016000909192909190915055507fc20f59e9d68948c943c420ad03b09ad5b4b7feccfe038eb67e9845033df38e1081600001548686868660405180868152602001806020018060200180602001858152602001848103845288818151815260200191508051906020019080838360005b8381101561064657808201518184015260208101905061062b565b50505050905090810190601f1680156106735780820380516001836020036101000a031916815260200191505b50848103835287818151815260200191508051906020019080838360005b838110156106ac578082015181840152602081019050610691565b50505050905090810190601f1680156106d95780820380516001836020036101000a031916815260200191505b50848103825286818151815260200191508051906020019080838360005b838110156107125780820151818401526020810190506106f7565b50505050905090810190601f16801561073f5780820380516001836020036101000a031916815260200191505b509850505050505050505060405180910390a1505050505050565b6003818154811061076757fe5b906000526020600020016000915090505481565b6000809054906101000a900473ffffffffffffffffffffffffffffffffffffffff1673ffffffffffffffffffffffffffffffffffffffff163373ffffffffffffffffffffffffffffffffffffffff1614806108235750600160009054906101000a900473ffffffffffffffffffffffffffffffffffffffff1673ffffffffffffffffffffffffffffffffffffffff163373ffffffffffffffffffffffffffffffffffffffff16145b61082c57600080fd5b60006002600083815260200190815260200160002090508060060160019054906101000a900473ffffffffffffffffffffffffffffffffffffffff1673ffffffffffffffffffffffffffffffffffffffff16600073ffffffffffffffffffffffffffffffffffffffff1614156108a157600080fd5b8060060160019054906101000a900473ffffffffffffffffffffffffffffffffffffffff1673ffffffffffffffffffffffffffffffffffffffff163373ffffffffffffffffffffffffffffffffffffffff1614156108fe57600080fd5b60018160070160003373ffffffffffffffffffffffffffffffffffffffff1673ffffffffffffffffffffffffffffffffffffffff16815260200190815260200160002054141561094d57600080fd5b60018160070160003373ffffffffffffffffffffffffffffffffffffffff1673ffffffffffffffffffffffffffffffffffffffff168152602001908152602001600020819055508060020160008154809291906001019190505550600281600201541415610ba4577fc2f555c23b76b78740a06bbfda9d00e05b6234a7e1123d7408fe22f39eaeb81f8160000154826003018360040184600501856001015460405180868152602001806020018060200180602001858152602001848103845288818154600181600116156101000203166002900481526020019150805460018160011615610100020316600290048015610a895780601f10610a5e57610100808354040283529160200191610a89565b820191906000526020600020905b815481529060010190602001808311610a6c57829003601f168201915b5050848103835287818154600181600116156101000203166002900481526020019150805460018160011615610100020316600290048015610b0c5780601f10610ae157610100808354040283529160200191610b0c565b820191906000526020600020905b815481529060010190602001808311610aef57829003601f168201915b5050848103825286818154600181600116156101000203166002900481526020019150805460018160011615610100020316600290048015610b8f5780601f10610b6457610100808354040283529160200191610b8f565b820191906000526020600020905b815481529060010190602001808311610b7257829003601f168201915b50509850505050505050505060405180910390a15b5050565b6002602052806000526040600020600091509050806000015490806001015490806002015490806003018054600181600116156101000203166002900480601f016020809104026020016040519081016040528092919081815260200182805460018160011615610100020316600290048015610c665780601f10610c3b57610100808354040283529160200191610c66565b820191906000526020600020905b815481529060010190602001808311610c4957829003601f168201915b505050505090806004018054600181600116156101000203166002900480601f016020809104026020016040519081016040528092919081815260200182805460018160011615610100020316600290048015610d045780601f10610cd957610100808354040283529160200191610d04565b820191906000526020600020905b815481529060010190602001808311610ce757829003601f168201915b505050505090806005018054600181600116156101000203166002900480601f016020809104026020016040519081016040528092919081815260200182805460018160011615610100020316600290048015610da25780601f10610d7757610100808354040283529160200191610da2565b820191906000526020600020905b815481529060010190602001808311610d8557829003601f168201915b5050505050908060060160009054906101000a900460ff16908060060160019054906101000a900473ffffffffffffffffffffffffffffffffffffffff16905088565b828054600181600116156101000203166002900490600052602060002090601f016020900481019282601f10610e2657805160ff1916838001178555610e54565b82800160010185558215610e54579182015b82811115610e53578251825591602001919060010190610e38565b5b509050610e619190610e65565b5090565b610e8791905b80821115610e83576000816000905550600101610e6b565b5090565b9056fea265627a7a72315820f3525b3dde73c971516adcf2c298aa6b518ab57c80b812ddca4f4a5a74b3a40a64736f6c63430005100032",
  "source": "pragma solidity ^0.5.16;\n\ncontract HealthCare {\n\n    address private hospitalAdmin;\n    address private labAdmin;\n\n    struct Record {\n        uint256 ID;\n        uint256 price;\n        uint256 signatureCount;\n        string testName;\n        string date;\n        string hospitalName;\n        bool isValue;\n        address pAddr;\n        mapping (address => uint256) signatures;\n    }\n\n    modifier signOnly {\n        require (msg.sender == hospitalAdmin || msg.sender == labAdmin );\n        _;\n    }\n\n    constructor() public {\n        hospitalAdmin = msg.sender;\n        labAdmin = 0x53c05a9db0E6B4ED22Be4EFAa2dDeb822469c091;     //assigning a hard coded address from ganache                   \n    }\n    \n    \n    // Mapping to store records\n    mapping (uint256=> Record) public _records;\n    uint256[] public recordsArr;\n\n    event recordCreated(uint256 ID, string testName, string date, string hospitalName, uint256 price);\n    event recordSigned(uint256 ID, string testName, string date, string hospitalName, uint256 price);\n    \n    // Create new record\n    function newRecord (uint256 _ID, string memory _tName, string memory _date, string memory hName, uint256 price) public{\n        Record storage _newrecord = _records[_ID];\n\n        // Only allows new records to be created\n        require(!_records[_ID].isValue);\n            _newrecord.pAddr = msg.sender;\n            _newrecord.ID = _ID;\n            _newrecord.testName = _tName;\n            _newrecord.date = _date;\n            _newrecord.hospitalName = hName;\n            _newrecord.price = price;\n            _newrecord.isValue = true;\n            _newrecord.signatureCount = 0;\n\n        recordsArr.push(_ID);\n        emit  recordCreated(_newrecord.ID, _tName, _date, hName, price);\n    }\n\n    // Function to sign a record \n    function signRecord(uint256 _ID) signOnly public {\n        Record storage records = _records[_ID];\n        \n        // Checks the aunthenticity of the address signing it\n        require(address(0) != records.pAddr);\n        require(msg.sender != records.pAddr);\n        \n        // Doesn't allow the same person to sign twice\n        require(records.signatures[msg.sender] != 1);\n\n        records.signatures[msg.sender] = 1;\n        records.signatureCount++;\n\n        // Checks if the record has been signed by both the authorities to process insurance claim\n        if(records.signatureCount == 2)\n            emit  recordSigned(records.ID, records.testName, records.date, records.hospitalName, records.price);\n\n    }\n}\n",
  "sourcePath": "/home/rogith/Desktop/HealthCare-Insurance-Ethereum/contracts/HealthCare.sol",
  "compiler": {
    "name": "solc",
    "version": "0.5.16+commit.9c3226ce.Emscripten.clang"
  },
  "schemaVersion": "3.3.0",
  "updatedAt": "2020-11-12T18:51:26.612Z",
  "networkType": "ethereum",
  "devdoc": {
    "methods": {}
  },
  "userdoc": {
    "methods": {}
  }
}