{
  "contractName": "HealthCare",
  "abi": [
    {
      "inputs": [],
      "payable": false,
      "stateMutability": "nonpayable",
      "type": "constructor"
    },
    {
      "anonymous": false,
      "inputs": [
        {
          "indexed": false,
          "internalType": "uint256",
          "name": "ID",
          "type": "uint256"
        },
        {
          "indexed": false,
          "internalType": "bool",
          "name": "isApproved",
          "type": "bool"
        },
        {
          "indexed": false,
          "internalType": "bool",
          "name": "requestAnswered",
          "type": "bool"
        }
      ],
      "name": "approved",
      "type": "event"
    },
    {
      "anonymous": false,
      "inputs": [
        {
          "indexed": false,
          "internalType": "string",
          "name": "patientName",
          "type": "string"
        },
        {
          "indexed": false,
          "internalType": "string",
          "name": "dob",
          "type": "string"
        },
        {
          "indexed": false,
          "internalType": "uint256",
          "name": "mobileNum",
          "type": "uint256"
        },
        {
          "indexed": false,
          "internalType": "string",
          "name": "bloodgroup",
          "type": "string"
        }
      ],
      "name": "precordCreated",
      "type": "event"
    },
    {
      "anonymous": false,
      "inputs": [
        {
          "indexed": false,
          "internalType": "uint256",
          "name": "ID",
          "type": "uint256"
        },
        {
          "indexed": false,
          "internalType": "string",
          "name": "testName",
          "type": "string"
        },
        {
          "indexed": false,
          "internalType": "string",
          "name": "date",
          "type": "string"
        },
        {
          "indexed": false,
          "internalType": "string",
          "name": "hospitalName",
          "type": "string"
        },
        {
          "indexed": false,
          "internalType": "uint256",
          "name": "price",
          "type": "uint256"
        }
      ],
      "name": "recordCreated",
      "type": "event"
    },
    {
      "anonymous": false,
      "inputs": [
        {
          "indexed": false,
          "internalType": "uint256",
          "name": "ID",
          "type": "uint256"
        },
        {
          "indexed": false,
          "internalType": "string",
          "name": "testName",
          "type": "string"
        },
        {
          "indexed": false,
          "internalType": "string",
          "name": "date",
          "type": "string"
        },
        {
          "indexed": false,
          "internalType": "string",
          "name": "hospitalName",
          "type": "string"
        },
        {
          "indexed": false,
          "internalType": "uint256",
          "name": "price",
          "type": "uint256"
        }
      ],
      "name": "recordSigned",
      "type": "event"
    },
    {
      "anonymous": false,
      "inputs": [
        {
          "indexed": false,
          "internalType": "uint256",
          "name": "ID",
          "type": "uint256"
        },
        {
          "indexed": false,
          "internalType": "bool",
          "name": "isApproved",
          "type": "bool"
        },
        {
          "indexed": false,
          "internalType": "bool",
          "name": "requestAnswered",
          "type": "bool"
        }
      ],
      "name": "rejected",
      "type": "event"
    },
    {
      "constant": true,
      "inputs": [
        {
          "internalType": "address",
          "name": "",
          "type": "address"
        }
      ],
      "name": "_precords",
      "outputs": [
        {
          "internalType": "uint256",
          "name": "mobileNum",
          "type": "uint256"
        },
        {
          "internalType": "string",
          "name": "patientName",
          "type": "string"
        },
        {
          "internalType": "string",
          "name": "dob",
          "type": "string"
        },
        {
          "internalType": "string",
          "name": "bloodgroup",
          "type": "string"
        },
        {
          "internalType": "bool",
          "name": "isValue",
          "type": "bool"
        }
      ],
      "payable": false,
      "stateMutability": "view",
      "type": "function"
    },
    {
      "constant": true,
      "inputs": [
        {
          "internalType": "uint256",
          "name": "",
          "type": "uint256"
        }
      ],
      "name": "_records",
      "outputs": [
        {
          "internalType": "uint256",
          "name": "ID",
          "type": "uint256"
        },
        {
          "internalType": "uint256",
          "name": "price",
          "type": "uint256"
        },
        {
          "internalType": "uint256",
          "name": "signatureCount",
          "type": "uint256"
        },
        {
          "internalType": "string",
          "name": "testName",
          "type": "string"
        },
        {
          "internalType": "string",
          "name": "date",
          "type": "string"
        },
        {
          "internalType": "string",
          "name": "hospitalName",
          "type": "string"
        },
        {
          "internalType": "bool",
          "name": "isValue",
          "type": "bool"
        },
        {
          "internalType": "address",
          "name": "pAddr",
          "type": "address"
        },
        {
          "internalType": "bool",
          "name": "isApproved",
          "type": "bool"
        },
        {
          "internalType": "bool",
          "name": "requestAnswered",
          "type": "bool"
        }
      ],
      "payable": false,
      "stateMutability": "view",
      "type": "function"
    },
    {
      "constant": true,
      "inputs": [],
      "name": "precordCount",
      "outputs": [
        {
          "internalType": "uint256",
          "name": "",
          "type": "uint256"
        }
      ],
      "payable": false,
      "stateMutability": "view",
      "type": "function"
    },
    {
      "constant": true,
      "inputs": [],
      "name": "recordCount",
      "outputs": [
        {
          "internalType": "uint256",
          "name": "",
          "type": "uint256"
        }
      ],
      "payable": false,
      "stateMutability": "view",
      "type": "function"
    },
    {
      "constant": true,
      "inputs": [
        {
          "internalType": "uint256",
          "name": "",
          "type": "uint256"
        }
      ],
      "name": "recordsArr",
      "outputs": [
        {
          "internalType": "uint256",
          "name": "",
          "type": "uint256"
        }
      ],
      "payable": false,
      "stateMutability": "view",
      "type": "function"
    },
    {
      "constant": false,
      "inputs": [
        {
          "internalType": "uint256",
          "name": "_ID",
          "type": "uint256"
        },
        {
          "internalType": "string",
          "name": "_tName",
          "type": "string"
        },
        {
          "internalType": "string",
          "name": "_date",
          "type": "string"
        },
        {
          "internalType": "string",
          "name": "hName",
          "type": "string"
        },
        {
          "internalType": "uint256",
          "name": "price",
          "type": "uint256"
        }
      ],
      "name": "newRecord",
      "outputs": [],
      "payable": false,
      "stateMutability": "nonpayable",
      "type": "function"
    },
    {
      "constant": false,
      "inputs": [
        {
          "internalType": "string",
          "name": "_PName",
          "type": "string"
        },
        {
          "internalType": "string",
          "name": "_dob",
          "type": "string"
        },
        {
          "internalType": "uint256",
          "name": "mnum",
          "type": "uint256"
        },
        {
          "internalType": "string",
          "name": "blood",
          "type": "string"
        }
      ],
      "name": "newPatientRecord",
      "outputs": [],
      "payable": false,
      "stateMutability": "nonpayable",
      "type": "function"
    },
    {
      "constant": false,
      "inputs": [
        {
          "internalType": "uint256",
          "name": "_ID",
          "type": "uint256"
        }
      ],
      "name": "ApproveBill",
      "outputs": [],
      "payable": false,
      "stateMutability": "nonpayable",
      "type": "function"
    },
    {
      "constant": false,
      "inputs": [
        {
          "internalType": "uint256",
          "name": "_ID",
          "type": "uint256"
        }
      ],
      "name": "RejectBill",
      "outputs": [],
      "payable": false,
      "stateMutability": "nonpayable",
      "type": "function"
    },
    {
      "constant": false,
      "inputs": [
        {
          "internalType": "uint256",
          "name": "_ID",
          "type": "uint256"
        }
      ],
      "name": "signRecord",
      "outputs": [],
      "payable": false,
      "stateMutability": "nonpayable",
      "type": "function"
    }
  ],
  "bytecode": "0x608060405234801561001057600080fd5b50336000806101000a81548173ffffffffffffffffffffffffffffffffffffffff021916908373ffffffffffffffffffffffffffffffffffffffff1602179055507341b3889b82e06b0434da6a11aa7ccc0d641dc21c600160006101000a81548173ffffffffffffffffffffffffffffffffffffffff021916908373ffffffffffffffffffffffffffffffffffffffff16021790555061199f806100b56000396000f3fe608060405234801561001057600080fd5b506004361061009e5760003560e01c8063a4fbb50411610066578063a4fbb504146104d5578063a508d0ed146106c8578063dd85600b146106f6578063ee7093b014610724578063ee96b9eb146107425761009e565b806317aa7fcb146100a35780633a651651146102a0578063549b39fc14610447578063900407bc146104895780639ed9d1fa146104a7575b600080fd5b61029e600480360360a08110156100b957600080fd5b8101908080359060200190929190803590602001906401000000008111156100e057600080fd5b8201836020820111156100f257600080fd5b8035906020019184600183028401116401000000008311171561011457600080fd5b91908080601f016020809104026020016040519081016040528093929190818152602001838380828437600081840152601f19601f8201169050808301925050505050505091929192908035906020019064010000000081111561017757600080fd5b82018360208201111561018957600080fd5b803590602001918460018302840111640100000000831117156101ab57600080fd5b91908080601f016020809104026020016040519081016040528093929190818152602001838380828437600081840152601f19601f8201169050808301925050505050505091929192908035906020019064010000000081111561020e57600080fd5b82018360208201111561022057600080fd5b8035906020019184600183028401116401000000008311171561024257600080fd5b91908080601f016020809104026020016040519081016040528093929190818152602001838380828437600081840152601f19601f8201169050808301925050505050505091929192908035906020019092919050505061092a565b005b6102e2600480360360208110156102b657600080fd5b81019080803573ffffffffffffffffffffffffffffffffffffffff169060200190929190505050610c06565b6040518086815260200180602001806020018060200185151515158152602001848103845288818151815260200191508051906020019080838360005b8381101561033a57808201518184015260208101905061031f565b50505050905090810190601f1680156103675780820380516001836020036101000a031916815260200191505b50848103835287818151815260200191508051906020019080838360005b838110156103a0578082015181840152602081019050610385565b50505050905090810190601f1680156103cd5780820380516001836020036101000a031916815260200191505b50848103825286818151815260200191508051906020019080838360005b838110156104065780820151818401526020810190506103eb565b50505050905090810190601f1680156104335780820380516001836020036101000a031916815260200191505b509850505050505050505060405180910390f35b6104736004803603602081101561045d57600080fd5b8101908080359060200190929190505050610e11565b6040518082815260200191505060405180910390f35b610491610e32565b6040518082815260200191505060405180910390f35b6104d3600480360360208110156104bd57600080fd5b8101908080359060200190929190505050610e38565b005b6106c6600480360360808110156104eb57600080fd5b810190808035906020019064010000000081111561050857600080fd5b82018360208201111561051a57600080fd5b8035906020019184600183028401116401000000008311171561053c57600080fd5b91908080601f016020809104026020016040519081016040528093929190818152602001838380828437600081840152601f19601f8201169050808301925050505050505091929192908035906020019064010000000081111561059f57600080fd5b8201836020820111156105b157600080fd5b803590602001918460018302840111640100000000831117156105d357600080fd5b91908080601f016020809104026020016040519081016040528093929190818152602001838380828437600081840152601f19601f820116905080830192505050505050509192919290803590602001909291908035906020019064010000000081111561064057600080fd5b82018360208201111561065257600080fd5b8035906020019184600183028401116401000000008311171561067457600080fd5b91908080601f016020809104026020016040519081016040528093929190818152602001838380828437600081840152601f19601f820116905080830192505050505050509192919290505050610efe565b005b6106f4600480360360208110156106de57600080fd5b8101908080359060200190929190505050611169565b005b6107226004803603602081101561070c57600080fd5b8101908080359060200190929190505050611596565b005b61072c61165c565b6040518082815260200191505060405180910390f35b61076e6004803603602081101561075857600080fd5b8101908080359060200190929190505050611662565b604051808b81526020018a8152602001898152602001806020018060200180602001881515151581526020018773ffffffffffffffffffffffffffffffffffffffff1673ffffffffffffffffffffffffffffffffffffffff168152602001861515151581526020018515151515815260200184810384528b818151815260200191508051906020019080838360005b838110156108185780820151818401526020810190506107fd565b50505050905090810190601f1680156108455780820380516001836020036101000a031916815260200191505b5084810383528a818151815260200191508051906020019080838360005b8381101561087e578082015181840152602081019050610863565b50505050905090810190601f1680156108ab5780820380516001836020036101000a031916815260200191505b50848103825289818151815260200191508051906020019080838360005b838110156108e45780820151818401526020810190506108c9565b50505050905090810190601f1680156109115780820380516001836020036101000a031916815260200191505b509d505050505050505050505050505060405180910390f35b60006002600087815260200190815260200160002090506002600087815260200190815260200160002060060160009054906101000a900460ff161561096f57600080fd5b338160060160016101000a81548173ffffffffffffffffffffffffffffffffffffffff021916908373ffffffffffffffffffffffffffffffffffffffff160217905550858160000181905550848160030190805190602001906109d39291906118c5565b50838160040190805190602001906109ec9291906118c5565b5082816005019080519060200190610a059291906118c5565b5081816001018190555060018160060160006101000a81548160ff0219169083151502179055506000816002018190555060056000815480929190600101919050555060048690806001815401808255809150509060018203906000526020600020016000909192909190915055507fc20f59e9d68948c943c420ad03b09ad5b4b7feccfe038eb67e9845033df38e1081600001548686868660405180868152602001806020018060200180602001858152602001848103845288818151815260200191508051906020019080838360005b83811015610af2578082015181840152602081019050610ad7565b50505050905090810190601f168015610b1f5780820380516001836020036101000a031916815260200191505b50848103835287818151815260200191508051906020019080838360005b83811015610b58578082015181840152602081019050610b3d565b50505050905090810190601f168015610b855780820380516001836020036101000a031916815260200191505b50848103825286818151815260200191508051906020019080838360005b83811015610bbe578082015181840152602081019050610ba3565b50505050905090810190601f168015610beb5780820380516001836020036101000a031916815260200191505b509850505050505050505060405180910390a1505050505050565b6003602052806000526040600020600091509050806000015490806001018054600181600116156101000203166002900480601f016020809104026020016040519081016040528092919081815260200182805460018160011615610100020316600290048015610cb85780601f10610c8d57610100808354040283529160200191610cb8565b820191906000526020600020905b815481529060010190602001808311610c9b57829003601f168201915b505050505090806002018054600181600116156101000203166002900480601f016020809104026020016040519081016040528092919081815260200182805460018160011615610100020316600290048015610d565780601f10610d2b57610100808354040283529160200191610d56565b820191906000526020600020905b815481529060010190602001808311610d3957829003601f168201915b505050505090806003018054600181600116156101000203166002900480601f016020809104026020016040519081016040528092919081815260200182805460018160011615610100020316600290048015610df45780601f10610dc957610100808354040283529160200191610df4565b820191906000526020600020905b815481529060010190602001808311610dd757829003601f168201915b5050505050908060040160009054906101000a900460ff16905085565b60048181548110610e1e57fe5b906000526020600020016000915090505481565b60055481565b600060026000838152602001908152602001600020905060018160080160006101000a81548160ff02191690831515021790555060018160080160016101000a81548160ff0219169083151502179055507faf6935dfddb6a228afdcf0b5f2577d4a8be3025dc2e201df9c6f10c4920cab8c828260080160009054906101000a900460ff168360080160019054906101000a900460ff16604051808481526020018315151515815260200182151515158152602001935050505060405180910390a15050565b6000600360003373ffffffffffffffffffffffffffffffffffffffff1673ffffffffffffffffffffffffffffffffffffffff168152602001908152602001600020905084816001019080519060200190610f599291906118c5565b5083816002019080519060200190610f729291906118c5565b5082816000018190555081816003019080519060200190610f949291906118c5565b5060018160040160006101000a81548160ff0219169083151502179055506006600081548092919060010191905055507f1552d75a717df458a2e6a3d2df6851f8c82aa2763421eef5468479826d9a056381600101858585604051808060200180602001858152602001806020018481038452888181546001816001161561010002031660029004815260200191508054600181600116156101000203166002900480156110835780601f1061105857610100808354040283529160200191611083565b820191906000526020600020905b81548152906001019060200180831161106657829003601f168201915b5050848103835287818151815260200191508051906020019080838360005b838110156110bd5780820151818401526020810190506110a2565b50505050905090810190601f1680156110ea5780820380516001836020036101000a031916815260200191505b50848103825285818151815260200191508051906020019080838360005b83811015611123578082015181840152602081019050611108565b50505050905090810190601f1680156111505780820380516001836020036101000a031916815260200191505b5097505050505050505060405180910390a15050505050565b6000809054906101000a900473ffffffffffffffffffffffffffffffffffffffff1673ffffffffffffffffffffffffffffffffffffffff163373ffffffffffffffffffffffffffffffffffffffff1614806112115750600160009054906101000a900473ffffffffffffffffffffffffffffffffffffffff1673ffffffffffffffffffffffffffffffffffffffff163373ffffffffffffffffffffffffffffffffffffffff16145b61121a57600080fd5b60006002600083815260200190815260200160002090508060060160019054906101000a900473ffffffffffffffffffffffffffffffffffffffff1673ffffffffffffffffffffffffffffffffffffffff16600073ffffffffffffffffffffffffffffffffffffffff16141561128f57600080fd5b8060060160019054906101000a900473ffffffffffffffffffffffffffffffffffffffff1673ffffffffffffffffffffffffffffffffffffffff163373ffffffffffffffffffffffffffffffffffffffff1614156112ec57600080fd5b60018160070160003373ffffffffffffffffffffffffffffffffffffffff1673ffffffffffffffffffffffffffffffffffffffff16815260200190815260200160002054141561133b57600080fd5b60018160070160003373ffffffffffffffffffffffffffffffffffffffff1673ffffffffffffffffffffffffffffffffffffffff168152602001908152602001600020819055508060020160008154809291906001019190505550600281600201541415611592577fc2f555c23b76b78740a06bbfda9d00e05b6234a7e1123d7408fe22f39eaeb81f81600001548260030183600401846005018560010154604051808681526020018060200180602001806020018581526020018481038452888181546001816001161561010002031660029004815260200191508054600181600116156101000203166002900480156114775780601f1061144c57610100808354040283529160200191611477565b820191906000526020600020905b81548152906001019060200180831161145a57829003601f168201915b50508481038352878181546001816001161561010002031660029004815260200191508054600181600116156101000203166002900480156114fa5780601f106114cf576101008083540402835291602001916114fa565b820191906000526020600020905b8154815290600101906020018083116114dd57829003601f168201915b505084810382528681815460018160011615610100020316600290048152602001915080546001816001161561010002031660029004801561157d5780601f106115525761010080835404028352916020019161157d565b820191906000526020600020905b81548152906001019060200180831161156057829003601f168201915b50509850505050505050505060405180910390a15b5050565b600060026000838152602001908152602001600020905060008160080160006101000a81548160ff02191690831515021790555060018160080160016101000a81548160ff0219169083151502179055507f0d67bdb55aaeed6e23725fa5d4724305c94fbee065cb51988896e2288814905a828260080160009054906101000a900460ff168360080160019054906101000a900460ff16604051808481526020018315151515815260200182151515158152602001935050505060405180910390a15050565b60065481565b6002602052806000526040600020600091509050806000015490806001015490806002015490806003018054600181600116156101000203166002900480601f0160208091040260200160405190810160405280929190818152602001828054600181600116156101000203166002900480156117205780601f106116f557610100808354040283529160200191611720565b820191906000526020600020905b81548152906001019060200180831161170357829003601f168201915b505050505090806004018054600181600116156101000203166002900480601f0160208091040260200160405190810160405280929190818152602001828054600181600116156101000203166002900480156117be5780601f10611793576101008083540402835291602001916117be565b820191906000526020600020905b8154815290600101906020018083116117a157829003601f168201915b505050505090806005018054600181600116156101000203166002900480601f01602080910402602001604051908101604052809291908181526020018280546001816001161561010002031660029004801561185c5780601f106118315761010080835404028352916020019161185c565b820191906000526020600020905b81548152906001019060200180831161183f57829003601f168201915b5050505050908060060160009054906101000a900460ff16908060060160019054906101000a900473ffffffffffffffffffffffffffffffffffffffff16908060080160009054906101000a900460ff16908060080160019054906101000a900460ff1690508a565b828054600181600116156101000203166002900490600052602060002090601f016020900481019282601f1061190657805160ff1916838001178555611934565b82800160010185558215611934579182015b82811115611933578251825591602001919060010190611918565b5b5090506119419190611945565b5090565b61196791905b8082111561196357600081600090555060010161194b565b5090565b9056fea265627a7a72315820a387b433acbb48111c37c08002f38cd5618f020f028e08e60ab6c4397355324064736f6c63430005100032",
  "source": "pragma solidity ^0.5.16;\n\ncontract HealthCare {\n    address private hospitalAdmin;\n    address private labAdmin;\n\n    struct Record {\n        uint256 ID;\n        uint256 price;\n        uint256 signatureCount;\n        string testName;\n        string date;\n        string hospitalName;\n        bool isValue;\n        address pAddr;\n        mapping(address => uint256) signatures;\n        bool isApproved;\n        bool requestAnswered;\n    }\n\n    struct PRecord {\n        uint256 mobileNum;\n        string patientName;\n        string dob;\n        string bloodgroup;\n        bool isValue;\n     }\n    modifier signOnly {\n        require(msg.sender == hospitalAdmin || msg.sender == labAdmin);\n        _;\n    }\n\n    constructor() public {\n        hospitalAdmin = msg.sender;\n        labAdmin = 0x41b3889b82E06B0434da6a11Aa7cCc0D641dC21c;\n    }\n\n    // Mapping to store records\n    mapping(uint256 => Record) public _records;\n    mapping(address => PRecord) public _precords;\n    uint256[] public recordsArr;\n    uint256 public recordCount;\n    uint256 public precordCount;\n    event recordCreated(\n        uint256 ID,\n        string testName,\n        string date,\n        string hospitalName,\n        uint256 price\n    );\n    event precordCreated(\n        string patientName,\n        string dob,\n        uint256 mobileNum,\n        string bloodgroup\n    );\n    event recordSigned(\n        uint256 ID,\n        string testName,\n        string date,\n        string hospitalName,\n        uint256 price\n    );\n    event approved(\n        uint256 ID,\n        bool isApproved,\n        bool requestAnswered\n    );\n    event rejected(\n        uint256 ID,\n        bool isApproved,\n        bool requestAnswered\n    );\n    // Create new record\n    function newRecord(\n        uint256 _ID,\n        string memory _tName,\n        string memory _date,\n        string memory hName,\n        uint256 price\n    ) public {\n        Record storage _newrecord = _records[_ID];\n\n        // Only allows new records to be created\n        require(!_records[_ID].isValue);\n        _newrecord.pAddr = msg.sender;\n        _newrecord.ID = _ID;\n        _newrecord.testName = _tName;\n        _newrecord.date = _date;\n        _newrecord.hospitalName = hName;\n        _newrecord.price = price;\n        _newrecord.isValue = true;\n        _newrecord.signatureCount = 0;\n        recordCount++;\n        recordsArr.push(_ID);\n        emit recordCreated(_newrecord.ID, _tName, _date, hName, price);\n    }\n\n    function newPatientRecord(\n        string memory _PName,\n        string memory _dob,\n        uint256 mnum,\n        string memory blood\n    ) public {\n        PRecord storage _newrecord = _precords[msg.sender];\n\n        // Only allows new records to be created\n        _newrecord.patientName = _PName;\n        _newrecord.dob = _dob;\n        _newrecord.mobileNum = mnum;\n        _newrecord.bloodgroup = blood;\n        _newrecord.isValue = true;\n        precordCount++;\n        emit precordCreated(_newrecord.patientName, _dob, mnum, blood);\n    }\n\n    function ApproveBill(uint256 _ID) public{\n         Record storage record = _records[_ID];\n         record.isApproved = true;\n         record.requestAnswered = true;\n         emit approved(_ID,record.isApproved,record.requestAnswered);\n    }\n\n     function RejectBill(uint256 _ID) public{\n         Record storage record = _records[_ID];\n         record.isApproved = false;\n         record.requestAnswered = true;\n         emit rejected(_ID,record.isApproved,record.requestAnswered);\n    }\n\n    // Function to sign a record\n    function signRecord(uint256 _ID) public signOnly {\n        Record storage records = _records[_ID];\n\n        // Checks the aunthenticity of the address signing it\n        require(address(0) != records.pAddr);\n        require(msg.sender != records.pAddr);\n\n        // Doesn't allow the same person to sign twice\n        require(records.signatures[msg.sender] != 1);\n\n        records.signatures[msg.sender] = 1;\n        records.signatureCount++;\n\n        // Checks if the record has been signed by both the authorities to process insurance claim\n        if (records.signatureCount == 2)\n            emit recordSigned(\n                records.ID,\n                records.testName,\n                records.date,\n                records.hospitalName,\n                records.price\n            );\n    }\n}\n",
  "sourcePath": "/home/rogith/Desktop/HealthCare-Insurance-Ethereum/contracts/HealthCare.sol",
  "compiler": {
    "name": "solc",
    "version": "0.5.16+commit.9c3226ce.Emscripten.clang"
  },
  "schemaVersion": "3.3.0",
  "updatedAt": "2021-02-23T08:05:37.977Z",
  "networkType": "ethereum",
  "devdoc": {
    "methods": {}
  },
  "userdoc": {
    "methods": {}
  }
}