{
  "contractName": "HealthCare",
  "abi": [
    {
      "constant": true,
      "inputs": [
        {
          "name": "",
          "type": "address"
        }
      ],
      "name": "_precords",
      "outputs": [
        {
          "name": "mobileNum",
          "type": "uint256"
        },
        {
          "name": "patientName",
          "type": "string"
        },
        {
          "name": "dob",
          "type": "string"
        },
        {
          "name": "bloodgroup",
          "type": "string"
        },
        {
          "name": "isValue",
          "type": "bool"
        }
      ],
      "payable": false,
      "stateMutability": "view",
      "type": "function",
      "signature": "0x3a651651"
    },
    {
      "constant": true,
      "inputs": [
        {
          "name": "",
          "type": "uint256"
        }
      ],
      "name": "recordsArr",
      "outputs": [
        {
          "name": "",
          "type": "uint256"
        }
      ],
      "payable": false,
      "stateMutability": "view",
      "type": "function",
      "signature": "0x549b39fc"
    },
    {
      "constant": true,
      "inputs": [],
      "name": "recordCount",
      "outputs": [
        {
          "name": "",
          "type": "uint256"
        }
      ],
      "payable": false,
      "stateMutability": "view",
      "type": "function",
      "signature": "0x900407bc"
    },
    {
      "constant": true,
      "inputs": [],
      "name": "precordCount",
      "outputs": [
        {
          "name": "",
          "type": "uint256"
        }
      ],
      "payable": false,
      "stateMutability": "view",
      "type": "function",
      "signature": "0xee7093b0"
    },
    {
      "constant": true,
      "inputs": [
        {
          "name": "",
          "type": "uint256"
        }
      ],
      "name": "_records",
      "outputs": [
        {
          "name": "ID",
          "type": "uint256"
        },
        {
          "name": "price",
          "type": "uint256"
        },
        {
          "name": "signatureCount",
          "type": "uint256"
        },
        {
          "name": "testName",
          "type": "string"
        },
        {
          "name": "date",
          "type": "string"
        },
        {
          "name": "hospitalName",
          "type": "string"
        },
        {
          "name": "isValue",
          "type": "bool"
        },
        {
          "name": "pAddr",
          "type": "address"
        },
        {
          "name": "isApproved",
          "type": "uint256"
        },
        {
          "name": "imageHash",
          "type": "string"
        },
        {
          "name": "notificationViewed",
          "type": "bool"
        }
      ],
      "payable": false,
      "stateMutability": "view",
      "type": "function",
      "signature": "0xee96b9eb"
    },
    {
      "inputs": [],
      "payable": false,
      "stateMutability": "nonpayable",
      "type": "constructor",
      "signature": "constructor"
    },
    {
      "anonymous": false,
      "inputs": [
        {
          "indexed": false,
          "name": "ID",
          "type": "uint256"
        },
        {
          "indexed": false,
          "name": "testName",
          "type": "string"
        },
        {
          "indexed": false,
          "name": "date",
          "type": "string"
        },
        {
          "indexed": false,
          "name": "hospitalName",
          "type": "string"
        },
        {
          "indexed": false,
          "name": "price",
          "type": "uint256"
        },
        {
          "indexed": false,
          "name": "imageHash",
          "type": "string"
        }
      ],
      "name": "recordCreated",
      "type": "event",
      "signature": "0x9437a548f10838af9e78b1df9ce272d7a2eba84888b5c92e9b1422cd88ef8b7d"
    },
    {
      "anonymous": false,
      "inputs": [
        {
          "indexed": false,
          "name": "patientName",
          "type": "string"
        },
        {
          "indexed": false,
          "name": "dob",
          "type": "string"
        },
        {
          "indexed": false,
          "name": "mobileNum",
          "type": "uint256"
        },
        {
          "indexed": false,
          "name": "bloodgroup",
          "type": "string"
        }
      ],
      "name": "precordCreated",
      "type": "event",
      "signature": "0x1552d75a717df458a2e6a3d2df6851f8c82aa2763421eef5468479826d9a0563"
    },
    {
      "anonymous": false,
      "inputs": [
        {
          "indexed": false,
          "name": "ID",
          "type": "uint256"
        },
        {
          "indexed": false,
          "name": "testName",
          "type": "string"
        },
        {
          "indexed": false,
          "name": "date",
          "type": "string"
        },
        {
          "indexed": false,
          "name": "hospitalName",
          "type": "string"
        },
        {
          "indexed": false,
          "name": "price",
          "type": "uint256"
        }
      ],
      "name": "recordSigned",
      "type": "event",
      "signature": "0xc2f555c23b76b78740a06bbfda9d00e05b6234a7e1123d7408fe22f39eaeb81f"
    },
    {
      "anonymous": false,
      "inputs": [
        {
          "indexed": false,
          "name": "ID",
          "type": "uint256"
        },
        {
          "indexed": false,
          "name": "isApproved",
          "type": "uint256"
        }
      ],
      "name": "approved",
      "type": "event",
      "signature": "0x6e4c4311190b1062819e0e19299b42574773ac9d0f7a0f0bf1d944f9867c4690"
    },
    {
      "anonymous": false,
      "inputs": [
        {
          "indexed": false,
          "name": "ID",
          "type": "uint256"
        },
        {
          "indexed": false,
          "name": "isApproved",
          "type": "uint256"
        }
      ],
      "name": "rejected",
      "type": "event",
      "signature": "0x2177534e9b1ca166f3794cf92b8b98574ca0ec7ab9a6902ceb19b1821fb6ee43"
    },
    {
      "anonymous": false,
      "inputs": [
        {
          "indexed": false,
          "name": "ID",
          "type": "uint256"
        }
      ],
      "name": "notifViewed",
      "type": "event",
      "signature": "0xfdfaf2e9eca3f4a6f2b2ff652a4ea66b96f8c0f00c0121ba79b4b099cfa85aaf"
    },
    {
      "constant": false,
      "inputs": [
        {
          "name": "_ID",
          "type": "uint256"
        },
        {
          "name": "_tName",
          "type": "string"
        },
        {
          "name": "_date",
          "type": "string"
        },
        {
          "name": "hName",
          "type": "string"
        },
        {
          "name": "price",
          "type": "uint256"
        },
        {
          "name": "_imageHash",
          "type": "string"
        }
      ],
      "name": "newRecord",
      "outputs": [],
      "payable": false,
      "stateMutability": "nonpayable",
      "type": "function",
      "signature": "0x24e05c82"
    },
    {
      "constant": false,
      "inputs": [
        {
          "name": "_PName",
          "type": "string"
        },
        {
          "name": "_dob",
          "type": "string"
        },
        {
          "name": "mnum",
          "type": "uint256"
        },
        {
          "name": "blood",
          "type": "string"
        }
      ],
      "name": "newPatientRecord",
      "outputs": [],
      "payable": false,
      "stateMutability": "nonpayable",
      "type": "function",
      "signature": "0xa4fbb504"
    },
    {
      "constant": false,
      "inputs": [
        {
          "name": "_ID",
          "type": "uint256"
        }
      ],
      "name": "ApproveBill",
      "outputs": [],
      "payable": false,
      "stateMutability": "nonpayable",
      "type": "function",
      "signature": "0x9ed9d1fa"
    },
    {
      "constant": false,
      "inputs": [
        {
          "name": "_ID",
          "type": "uint256"
        }
      ],
      "name": "RejectBill",
      "outputs": [],
      "payable": false,
      "stateMutability": "nonpayable",
      "type": "function",
      "signature": "0xdd85600b"
    },
    {
      "constant": false,
      "inputs": [
        {
          "name": "_ID",
          "type": "uint256"
        }
      ],
      "name": "notifView",
      "outputs": [],
      "payable": false,
      "stateMutability": "nonpayable",
      "type": "function",
      "signature": "0x51300cef"
    },
    {
      "constant": false,
      "inputs": [
        {
          "name": "_ID",
          "type": "uint256"
        }
      ],
      "name": "signRecord",
      "outputs": [],
      "payable": false,
      "stateMutability": "nonpayable",
      "type": "function",
      "signature": "0xa508d0ed"
    }
  ],
  "bytecode": "0x608060405234801561001057600080fd5b5073b19b5755dbe7f1eeb226c64ee0479cb9c200fd1b6000806101000a81548173ffffffffffffffffffffffffffffffffffffffff021916908373ffffffffffffffffffffffffffffffffffffffff1602179055507341b3889b82e06b0434da6a11aa7ccc0d641dc21c600160006101000a81548173ffffffffffffffffffffffffffffffffffffffff021916908373ffffffffffffffffffffffffffffffffffffffff160217905550611c3a806100c96000396000f3fe6080604052600436106100af576000357c0100000000000000000000000000000000000000000000000000000000900463ffffffff16806324e05c82146100b45780633a6516511461035557806351300cef14610509578063549b39fc14610544578063900407bc146105935780639ed9d1fa146105be578063a4fbb504146105f9578063a508d0ed146107f9578063dd85600b14610834578063ee7093b01461086f578063ee96b9eb1461089a575b600080fd5b3480156100c057600080fd5b50610353600480360360c08110156100d757600080fd5b8101908080359060200190929190803590602001906401000000008111156100fe57600080fd5b82018360208201111561011057600080fd5b8035906020019184600183028401116401000000008311171561013257600080fd5b91908080601f016020809104026020016040519081016040528093929190818152602001838380828437600081840152601f19601f8201169050808301925050505050505091929192908035906020019064010000000081111561019557600080fd5b8201836020820111156101a757600080fd5b803590602001918460018302840111640100000000831117156101c957600080fd5b91908080601f016020809104026020016040519081016040528093929190818152602001838380828437600081840152601f19601f8201169050808301925050505050505091929192908035906020019064010000000081111561022c57600080fd5b82018360208201111561023e57600080fd5b8035906020019184600183028401116401000000008311171561026057600080fd5b91908080601f016020809104026020016040519081016040528093929190818152602001838380828437600081840152601f19601f82011690508083019250505050505050919291929080359060200190929190803590602001906401000000008111156102cd57600080fd5b8201836020820111156102df57600080fd5b8035906020019184600183028401116401000000008311171561030157600080fd5b91908080601f016020809104026020016040519081016040528093929190818152602001838380828437600081840152601f19601f820116905080830192505050505050509192919290505050610af7565b005b34801561036157600080fd5b506103a46004803603602081101561037857600080fd5b81019080803573ffffffffffffffffffffffffffffffffffffffff169060200190929190505050610e5c565b6040518086815260200180602001806020018060200185151515158152602001848103845288818151815260200191508051906020019080838360005b838110156103fc5780820151818401526020810190506103e1565b50505050905090810190601f1680156104295780820380516001836020036101000a031916815260200191505b50848103835287818151815260200191508051906020019080838360005b83811015610462578082015181840152602081019050610447565b50505050905090810190601f16801561048f5780820380516001836020036101000a031916815260200191505b50848103825286818151815260200191508051906020019080838360005b838110156104c85780820151818401526020810190506104ad565b50505050905090810190601f1680156104f55780820380516001836020036101000a031916815260200191505b509850505050505050505060405180910390f35b34801561051557600080fd5b506105426004803603602081101561052c57600080fd5b8101908080359060200190929190505050611067565b005b34801561055057600080fd5b5061057d6004803603602081101561056757600080fd5b81019080803590602001909291905050506110d6565b6040518082815260200191505060405180910390f35b34801561059f57600080fd5b506105a86110f9565b6040518082815260200191505060405180910390f35b3480156105ca57600080fd5b506105f7600480360360208110156105e157600080fd5b81019080803590602001909291905050506110ff565b005b34801561060557600080fd5b506107f76004803603608081101561061c57600080fd5b810190808035906020019064010000000081111561063957600080fd5b82018360208201111561064b57600080fd5b8035906020019184600183028401116401000000008311171561066d57600080fd5b91908080601f016020809104026020016040519081016040528093929190818152602001838380828437600081840152601f19601f820116905080830192505050505050509192919290803590602001906401000000008111156106d057600080fd5b8201836020820111156106e257600080fd5b8035906020019184600183028401116401000000008311171561070457600080fd5b91908080601f016020809104026020016040519081016040528093929190818152602001838380828437600081840152601f19601f820116905080830192505050505050509192919290803590602001909291908035906020019064010000000081111561077157600080fd5b82018360208201111561078357600080fd5b803590602001918460018302840111640100000000831117156107a557600080fd5b91908080601f016020809104026020016040519081016040528093929190818152602001838380828437600081840152601f19601f820116905080830192505050505050509192919290505050611167565b005b34801561080557600080fd5b506108326004803603602081101561081c57600080fd5b81019080803590602001909291905050506113d2565b005b34801561084057600080fd5b5061086d6004803603602081101561085757600080fd5b8101908080359060200190929190505050611807565b005b34801561087b57600080fd5b5061088461186f565b6040518082815260200191505060405180910390f35b3480156108a657600080fd5b506108d3600480360360208110156108bd57600080fd5b8101908080359060200190929190505050611875565b604051808c81526020018b81526020018a8152602001806020018060200180602001891515151581526020018873ffffffffffffffffffffffffffffffffffffffff1673ffffffffffffffffffffffffffffffffffffffff168152602001878152602001806020018615151515815260200185810385528d818151815260200191508051906020019080838360005b8381101561097d578082015181840152602081019050610962565b50505050905090810190601f1680156109aa5780820380516001836020036101000a031916815260200191505b5085810384528c818151815260200191508051906020019080838360005b838110156109e35780820151818401526020810190506109c8565b50505050905090810190601f168015610a105780820380516001836020036101000a031916815260200191505b5085810383528b818151815260200191508051906020019080838360005b83811015610a49578082015181840152602081019050610a2e565b50505050905090810190601f168015610a765780820380516001836020036101000a031916815260200191505b50858103825287818151815260200191508051906020019080838360005b83811015610aaf578082015181840152602081019050610a94565b50505050905090810190601f168015610adc5780820380516001836020036101000a031916815260200191505b509f5050505050505050505050505050505060405180910390f35b60006002600088815260200190815260200160002090506002600088815260200190815260200160002060060160009054906101000a900460ff16151515610b3e57600080fd5b338160060160016101000a81548173ffffffffffffffffffffffffffffffffffffffff021916908373ffffffffffffffffffffffffffffffffffffffff16021790555086816000018190555085816003019080519060200190610ba2929190611b69565b5084816004019080519060200190610bbb929190611b69565b5083816005019080519060200190610bd4929190611b69565b5082816001018190555081816009019080519060200190610bf6929190611b69565b5060018160060160006101000a81548160ff0219169083151502179055506000816002018190555060056000815480929190600101919050555060048790806001815401808255809150509060018203906000526020600020016000909192909190915055507f9437a548f10838af9e78b1df9ce272d7a2eba84888b5c92e9b1422cd88ef8b7d81600001548787878787604051808781526020018060200180602001806020018681526020018060200185810385528a818151815260200191508051906020019080838360005b83811015610cdf578082015181840152602081019050610cc4565b50505050905090810190601f168015610d0c5780820380516001836020036101000a031916815260200191505b50858103845289818151815260200191508051906020019080838360005b83811015610d45578082015181840152602081019050610d2a565b50505050905090810190601f168015610d725780820380516001836020036101000a031916815260200191505b50858103835288818151815260200191508051906020019080838360005b83811015610dab578082015181840152602081019050610d90565b50505050905090810190601f168015610dd85780820380516001836020036101000a031916815260200191505b50858103825286818151815260200191508051906020019080838360005b83811015610e11578082015181840152602081019050610df6565b50505050905090810190601f168015610e3e5780820380516001836020036101000a031916815260200191505b509a505050505050505050505060405180910390a150505050505050565b6003602052806000526040600020600091509050806000015490806001018054600181600116156101000203166002900480601f016020809104026020016040519081016040528092919081815260200182805460018160011615610100020316600290048015610f0e5780601f10610ee357610100808354040283529160200191610f0e565b820191906000526020600020905b815481529060010190602001808311610ef157829003601f168201915b505050505090806002018054600181600116156101000203166002900480601f016020809104026020016040519081016040528092919081815260200182805460018160011615610100020316600290048015610fac5780601f10610f8157610100808354040283529160200191610fac565b820191906000526020600020905b815481529060010190602001808311610f8f57829003601f168201915b505050505090806003018054600181600116156101000203166002900480601f01602080910402602001604051908101604052809291908181526020018280546001816001161561010002031660029004801561104a5780601f1061101f5761010080835404028352916020019161104a565b820191906000526020600020905b81548152906001019060200180831161102d57829003601f168201915b5050505050908060040160009054906101000a900460ff16905085565b6000600260008381526020019081526020016000209050600181600a0160006101000a81548160ff0219169083151502179055507ffdfaf2e9eca3f4a6f2b2ff652a4ea66b96f8c0f00c0121ba79b4b099cfa85aaf826040518082815260200191505060405180910390a15050565b6004818154811015156110e557fe5b906000526020600020016000915090505481565b60055481565b6000600260008381526020019081526020016000209050600181600801819055507f6e4c4311190b1062819e0e19299b42574773ac9d0f7a0f0bf1d944f9867c4690828260080154604051808381526020018281526020019250505060405180910390a15050565b6000600360003373ffffffffffffffffffffffffffffffffffffffff1673ffffffffffffffffffffffffffffffffffffffff1681526020019081526020016000209050848160010190805190602001906111c2929190611b69565b50838160020190805190602001906111db929190611b69565b50828160000181905550818160030190805190602001906111fd929190611b69565b5060018160040160006101000a81548160ff0219169083151502179055506006600081548092919060010191905055507f1552d75a717df458a2e6a3d2df6851f8c82aa2763421eef5468479826d9a056381600101858585604051808060200180602001858152602001806020018481038452888181546001816001161561010002031660029004815260200191508054600181600116156101000203166002900480156112ec5780601f106112c1576101008083540402835291602001916112ec565b820191906000526020600020905b8154815290600101906020018083116112cf57829003601f168201915b5050848103835287818151815260200191508051906020019080838360005b8381101561132657808201518184015260208101905061130b565b50505050905090810190601f1680156113535780820380516001836020036101000a031916815260200191505b50848103825285818151815260200191508051906020019080838360005b8381101561138c578082015181840152602081019050611371565b50505050905090810190601f1680156113b95780820380516001836020036101000a031916815260200191505b5097505050505050505060405180910390a15050505050565b6000809054906101000a900473ffffffffffffffffffffffffffffffffffffffff1673ffffffffffffffffffffffffffffffffffffffff163373ffffffffffffffffffffffffffffffffffffffff16148061147a5750600160009054906101000a900473ffffffffffffffffffffffffffffffffffffffff1673ffffffffffffffffffffffffffffffffffffffff163373ffffffffffffffffffffffffffffffffffffffff16145b151561148557600080fd5b60006002600083815260200190815260200160002090508060060160019054906101000a900473ffffffffffffffffffffffffffffffffffffffff1673ffffffffffffffffffffffffffffffffffffffff16600073ffffffffffffffffffffffffffffffffffffffff16141515156114fc57600080fd5b8060060160019054906101000a900473ffffffffffffffffffffffffffffffffffffffff1673ffffffffffffffffffffffffffffffffffffffff163373ffffffffffffffffffffffffffffffffffffffff161415151561155b57600080fd5b60018160070160003373ffffffffffffffffffffffffffffffffffffffff1673ffffffffffffffffffffffffffffffffffffffff16815260200190815260200160002054141515156115ac57600080fd5b60018160070160003373ffffffffffffffffffffffffffffffffffffffff1673ffffffffffffffffffffffffffffffffffffffff168152602001908152602001600020819055508060020160008154809291906001019190505550600281600201541415611803577fc2f555c23b76b78740a06bbfda9d00e05b6234a7e1123d7408fe22f39eaeb81f81600001548260030183600401846005018560010154604051808681526020018060200180602001806020018581526020018481038452888181546001816001161561010002031660029004815260200191508054600181600116156101000203166002900480156116e85780601f106116bd576101008083540402835291602001916116e8565b820191906000526020600020905b8154815290600101906020018083116116cb57829003601f168201915b505084810383528781815460018160011615610100020316600290048152602001915080546001816001161561010002031660029004801561176b5780601f106117405761010080835404028352916020019161176b565b820191906000526020600020905b81548152906001019060200180831161174e57829003601f168201915b50508481038252868181546001816001161561010002031660029004815260200191508054600181600116156101000203166002900480156117ee5780601f106117c3576101008083540402835291602001916117ee565b820191906000526020600020905b8154815290600101906020018083116117d157829003601f168201915b50509850505050505050505060405180910390a15b5050565b6000600260008381526020019081526020016000209050600281600801819055507f2177534e9b1ca166f3794cf92b8b98574ca0ec7ab9a6902ceb19b1821fb6ee43828260080154604051808381526020018281526020019250505060405180910390a15050565b60065481565b6002602052806000526040600020600091509050806000015490806001015490806002015490806003018054600181600116156101000203166002900480601f0160208091040260200160405190810160405280929190818152602001828054600181600116156101000203166002900480156119335780601f1061190857610100808354040283529160200191611933565b820191906000526020600020905b81548152906001019060200180831161191657829003601f168201915b505050505090806004018054600181600116156101000203166002900480601f0160208091040260200160405190810160405280929190818152602001828054600181600116156101000203166002900480156119d15780601f106119a6576101008083540402835291602001916119d1565b820191906000526020600020905b8154815290600101906020018083116119b457829003601f168201915b505050505090806005018054600181600116156101000203166002900480601f016020809104026020016040519081016040528092919081815260200182805460018160011615610100020316600290048015611a6f5780601f10611a4457610100808354040283529160200191611a6f565b820191906000526020600020905b815481529060010190602001808311611a5257829003601f168201915b5050505050908060060160009054906101000a900460ff16908060060160019054906101000a900473ffffffffffffffffffffffffffffffffffffffff1690806008015490806009018054600181600116156101000203166002900480601f016020809104026020016040519081016040528092919081815260200182805460018160011615610100020316600290048015611b4c5780601f10611b2157610100808354040283529160200191611b4c565b820191906000526020600020905b815481529060010190602001808311611b2f57829003601f168201915b50505050509080600a0160009054906101000a900460ff1690508b565b828054600181600116156101000203166002900490600052602060002090601f016020900481019282601f10611baa57805160ff1916838001178555611bd8565b82800160010185558215611bd8579182015b82811115611bd7578251825591602001919060010190611bbc565b5b509050611be59190611be9565b5090565b611c0b91905b80821115611c07576000816000905550600101611bef565b5090565b9056fea165627a7a72305820cafc524ddc90f896aefd3adfac6642763278345c2d54cf68aced26f62ea9fef30029",
  "source": "pragma solidity >=0.4.24;\n\ncontract HealthCare {\n    address private hospitalAdmin;\n    address private labAdmin;\n\n    struct Record {\n        uint256 ID;\n        uint256 price;\n        uint256 signatureCount;\n        string testName;\n        string date;\n        string hospitalName;\n        bool isValue;\n        address pAddr;\n        mapping(address => uint256) signatures;\n        uint isApproved;\n        string imageHash;\n        bool notificationViewed;\n    }\n\n    struct PRecord {\n        uint256 mobileNum;\n        string patientName;\n        string dob;\n        string bloodgroup;\n        bool isValue;\n     }\n    modifier signOnly {\n        require(msg.sender == hospitalAdmin || msg.sender == labAdmin);\n        _;\n    }\n\n    constructor() public {\n        hospitalAdmin = 0xb19B5755DBE7F1EEB226C64EE0479CB9C200fD1b;\n        labAdmin = 0x41b3889b82E06B0434da6a11Aa7cCc0D641dC21c;\n    }\n\n    // Mapping to store records\n    mapping(uint256 => Record) public _records;\n    mapping(address => PRecord) public _precords;\n    uint256[] public recordsArr;\n    uint256 public recordCount;\n    uint256 public precordCount;\n    event recordCreated(\n        uint256 ID,\n        string testName,\n        string date,\n        string hospitalName,\n        uint256 price,\n        string imageHash\n    );\n    event precordCreated(\n        string patientName,\n        string dob,\n        uint256 mobileNum,\n        string bloodgroup\n    );\n    event recordSigned(\n        uint256 ID,\n        string testName,\n        string date,\n        string hospitalName,\n        uint256 price\n    );\n    event approved(\n        uint256 ID,\n        uint isApproved\n    );\n    event rejected(\n        uint256 ID,\n        uint isApproved\n    );\n    event notifViewed(\n        uint256 ID\n    );\n    // Create new record\n    function newRecord(\n        uint256 _ID,\n        string memory _tName,\n        string memory _date,\n        string memory hName,\n        uint256 price,\n        string memory _imageHash\n    ) public {\n        Record storage _newrecord = _records[_ID];\n\n        // Only allows new records to be created\n        require(!_records[_ID].isValue);\n        _newrecord.pAddr = msg.sender;\n        _newrecord.ID = _ID;\n        _newrecord.testName = _tName;\n        _newrecord.date = _date;\n        _newrecord.hospitalName = hName;\n        _newrecord.price = price;\n        _newrecord.imageHash = _imageHash;\n        _newrecord.isValue = true;\n        _newrecord.signatureCount = 0;\n        recordCount++;\n        recordsArr.push(_ID);\n        emit recordCreated(_newrecord.ID, _tName, _date, hName, price, _imageHash);\n    }\n\n    function newPatientRecord(\n        string memory _PName,\n        string memory _dob,\n        uint256 mnum,\n        string memory blood\n    ) public {\n        PRecord storage _newrecord = _precords[msg.sender];\n\n        // Only allows new records to be created\n        _newrecord.patientName = _PName;\n        _newrecord.dob = _dob;\n        _newrecord.mobileNum = mnum;\n        _newrecord.bloodgroup = blood;\n        _newrecord.isValue = true;\n        precordCount++;\n        emit precordCreated(_newrecord.patientName, _dob, mnum, blood);\n    }\n\n    function ApproveBill(uint256 _ID) public{\n         Record storage record = _records[_ID];\n         record.isApproved = 1;\n         emit approved(_ID,record.isApproved);\n    }\n\n     function RejectBill(uint256 _ID) public{\n         Record storage record = _records[_ID];\n         record.isApproved = 2;\n         emit rejected(_ID,record.isApproved);\n    }\n\n    function notifView(uint256 _ID) public{\n         Record storage record = _records[_ID];\n         record.notificationViewed = true;\n         emit notifViewed(_ID);\n    }\n    // Function to sign a record\n    function signRecord(uint256 _ID) public signOnly {\n        Record storage records = _records[_ID];\n\n        // Checks the aunthenticity of the address signing it\n        require(address(0) != records.pAddr);\n        require(msg.sender != records.pAddr);\n\n        // Doesn't allow the same person to sign twice\n        require(records.signatures[msg.sender] != 1);\n\n        records.signatures[msg.sender] = 1;\n        records.signatureCount++;\n\n        // Checks if the record has been signed by both the authorities to process insurance claim\n        if (records.signatureCount == 2)\n            emit recordSigned(\n                records.ID,\n                records.testName,\n                records.date,\n                records.hospitalName,\n                records.price\n            );\n    }\n}\n",
  "sourcePath": "/home/rogith/Desktop/HealthCare-Insurance-Ethereum/contracts/HealthCare.sol",
  "compiler": {
    "name": "solc",
    "version": "0.5.0+commit.1d4f565a.Emscripten.clang"
  },
  "schemaVersion": "3.0.2",
  "updatedAt": "2021-03-23T14:42:54.658Z",
  "devdoc": {
    "methods": {}
  },
  "userdoc": {
    "methods": {}
  }
}