{
  "contractName": "HealthCare",
  "abi": [
    {
      "constant": true,
      "inputs": [
        {
          "name": "",
          "type": "address"
        }
      ],
      "name": "_precords",
      "outputs": [
        {
          "name": "mobileNum",
          "type": "uint256"
        },
        {
          "name": "patientName",
          "type": "string"
        },
        {
          "name": "dob",
          "type": "string"
        },
        {
          "name": "bloodgroup",
          "type": "string"
        },
        {
          "name": "isValue",
          "type": "bool"
        }
      ],
      "payable": false,
      "stateMutability": "view",
      "type": "function",
      "signature": "0x3a651651"
    },
    {
      "constant": true,
      "inputs": [
        {
          "name": "",
          "type": "uint256"
        }
      ],
      "name": "recordsArr",
      "outputs": [
        {
          "name": "",
          "type": "uint256"
        }
      ],
      "payable": false,
      "stateMutability": "view",
      "type": "function",
      "signature": "0x549b39fc"
    },
    {
      "constant": true,
      "inputs": [],
      "name": "recordCount",
      "outputs": [
        {
          "name": "",
          "type": "uint256"
        }
      ],
      "payable": false,
      "stateMutability": "view",
      "type": "function",
      "signature": "0x900407bc"
    },
    {
      "constant": true,
      "inputs": [],
      "name": "precordCount",
      "outputs": [
        {
          "name": "",
          "type": "uint256"
        }
      ],
      "payable": false,
      "stateMutability": "view",
      "type": "function",
      "signature": "0xee7093b0"
    },
    {
      "constant": true,
      "inputs": [
        {
          "name": "",
          "type": "uint256"
        }
      ],
      "name": "_records",
      "outputs": [
        {
          "name": "ID",
          "type": "uint256"
        },
        {
          "name": "price",
          "type": "uint256"
        },
        {
          "name": "signatureCount",
          "type": "uint256"
        },
        {
          "name": "testName",
          "type": "string"
        },
        {
          "name": "date",
          "type": "string"
        },
        {
          "name": "hospitalName",
          "type": "string"
        },
        {
          "name": "isValue",
          "type": "bool"
        },
        {
          "name": "pAddr",
          "type": "address"
        },
        {
          "name": "isApproved",
          "type": "bool"
        },
        {
          "name": "requestAnswered",
          "type": "bool"
        },
        {
          "name": "imageHash",
          "type": "string"
        }
      ],
      "payable": false,
      "stateMutability": "view",
      "type": "function",
      "signature": "0xee96b9eb"
    },
    {
      "inputs": [],
      "payable": false,
      "stateMutability": "nonpayable",
      "type": "constructor",
      "signature": "constructor"
    },
    {
      "anonymous": false,
      "inputs": [
        {
          "indexed": false,
          "name": "ID",
          "type": "uint256"
        },
        {
          "indexed": false,
          "name": "testName",
          "type": "string"
        },
        {
          "indexed": false,
          "name": "date",
          "type": "string"
        },
        {
          "indexed": false,
          "name": "hospitalName",
          "type": "string"
        },
        {
          "indexed": false,
          "name": "price",
          "type": "uint256"
        },
        {
          "indexed": false,
          "name": "imageHash",
          "type": "string"
        }
      ],
      "name": "recordCreated",
      "type": "event",
      "signature": "0x9437a548f10838af9e78b1df9ce272d7a2eba84888b5c92e9b1422cd88ef8b7d"
    },
    {
      "anonymous": false,
      "inputs": [
        {
          "indexed": false,
          "name": "patientName",
          "type": "string"
        },
        {
          "indexed": false,
          "name": "dob",
          "type": "string"
        },
        {
          "indexed": false,
          "name": "mobileNum",
          "type": "uint256"
        },
        {
          "indexed": false,
          "name": "bloodgroup",
          "type": "string"
        }
      ],
      "name": "precordCreated",
      "type": "event",
      "signature": "0x1552d75a717df458a2e6a3d2df6851f8c82aa2763421eef5468479826d9a0563"
    },
    {
      "anonymous": false,
      "inputs": [
        {
          "indexed": false,
          "name": "ID",
          "type": "uint256"
        },
        {
          "indexed": false,
          "name": "testName",
          "type": "string"
        },
        {
          "indexed": false,
          "name": "date",
          "type": "string"
        },
        {
          "indexed": false,
          "name": "hospitalName",
          "type": "string"
        },
        {
          "indexed": false,
          "name": "price",
          "type": "uint256"
        }
      ],
      "name": "recordSigned",
      "type": "event",
      "signature": "0xc2f555c23b76b78740a06bbfda9d00e05b6234a7e1123d7408fe22f39eaeb81f"
    },
    {
      "anonymous": false,
      "inputs": [
        {
          "indexed": false,
          "name": "ID",
          "type": "uint256"
        },
        {
          "indexed": false,
          "name": "isApproved",
          "type": "bool"
        },
        {
          "indexed": false,
          "name": "requestAnswered",
          "type": "bool"
        }
      ],
      "name": "approved",
      "type": "event",
      "signature": "0xaf6935dfddb6a228afdcf0b5f2577d4a8be3025dc2e201df9c6f10c4920cab8c"
    },
    {
      "anonymous": false,
      "inputs": [
        {
          "indexed": false,
          "name": "ID",
          "type": "uint256"
        },
        {
          "indexed": false,
          "name": "isApproved",
          "type": "bool"
        },
        {
          "indexed": false,
          "name": "requestAnswered",
          "type": "bool"
        }
      ],
      "name": "rejected",
      "type": "event",
      "signature": "0x0d67bdb55aaeed6e23725fa5d4724305c94fbee065cb51988896e2288814905a"
    },
    {
      "constant": false,
      "inputs": [
        {
          "name": "_ID",
          "type": "uint256"
        },
        {
          "name": "_tName",
          "type": "string"
        },
        {
          "name": "_date",
          "type": "string"
        },
        {
          "name": "hName",
          "type": "string"
        },
        {
          "name": "price",
          "type": "uint256"
        },
        {
          "name": "_imageHash",
          "type": "string"
        }
      ],
      "name": "newRecord",
      "outputs": [],
      "payable": false,
      "stateMutability": "nonpayable",
      "type": "function",
      "signature": "0x24e05c82"
    },
    {
      "constant": false,
      "inputs": [
        {
          "name": "_PName",
          "type": "string"
        },
        {
          "name": "_dob",
          "type": "string"
        },
        {
          "name": "mnum",
          "type": "uint256"
        },
        {
          "name": "blood",
          "type": "string"
        }
      ],
      "name": "newPatientRecord",
      "outputs": [],
      "payable": false,
      "stateMutability": "nonpayable",
      "type": "function",
      "signature": "0xa4fbb504"
    },
    {
      "constant": false,
      "inputs": [
        {
          "name": "_ID",
          "type": "uint256"
        }
      ],
      "name": "ApproveBill",
      "outputs": [],
      "payable": false,
      "stateMutability": "nonpayable",
      "type": "function",
      "signature": "0x9ed9d1fa"
    },
    {
      "constant": false,
      "inputs": [
        {
          "name": "_ID",
          "type": "uint256"
        }
      ],
      "name": "RejectBill",
      "outputs": [],
      "payable": false,
      "stateMutability": "nonpayable",
      "type": "function",
      "signature": "0xdd85600b"
    },
    {
      "constant": false,
      "inputs": [
        {
          "name": "_ID",
          "type": "uint256"
        }
      ],
      "name": "signRecord",
      "outputs": [],
      "payable": false,
      "stateMutability": "nonpayable",
      "type": "function",
      "signature": "0xa508d0ed"
    }
  ],
  "bytecode": "0x608060405234801561001057600080fd5b5073b19b5755dbe7f1eeb226c64ee0479cb9c200fd1b6000806101000a81548173ffffffffffffffffffffffffffffffffffffffff021916908373ffffffffffffffffffffffffffffffffffffffff1602179055507341b3889b82e06b0434da6a11aa7ccc0d641dc21c600160006101000a81548173ffffffffffffffffffffffffffffffffffffffff021916908373ffffffffffffffffffffffffffffffffffffffff160217905550611c52806100c96000396000f3fe6080604052600436106100a4576000357c0100000000000000000000000000000000000000000000000000000000900463ffffffff16806324e05c82146100a95780633a6516511461034a578063549b39fc146104fe578063900407bc1461054d5780639ed9d1fa14610578578063a4fbb504146105b3578063a508d0ed146107b3578063dd85600b146107ee578063ee7093b014610829578063ee96b9eb14610854575b600080fd5b3480156100b557600080fd5b50610348600480360360c08110156100cc57600080fd5b8101908080359060200190929190803590602001906401000000008111156100f357600080fd5b82018360208201111561010557600080fd5b8035906020019184600183028401116401000000008311171561012757600080fd5b91908080601f016020809104026020016040519081016040528093929190818152602001838380828437600081840152601f19601f8201169050808301925050505050505091929192908035906020019064010000000081111561018a57600080fd5b82018360208201111561019c57600080fd5b803590602001918460018302840111640100000000831117156101be57600080fd5b91908080601f016020809104026020016040519081016040528093929190818152602001838380828437600081840152601f19601f8201169050808301925050505050505091929192908035906020019064010000000081111561022157600080fd5b82018360208201111561023357600080fd5b8035906020019184600183028401116401000000008311171561025557600080fd5b91908080601f016020809104026020016040519081016040528093929190818152602001838380828437600081840152601f19601f82011690508083019250505050505050919291929080359060200190929190803590602001906401000000008111156102c257600080fd5b8201836020820111156102d457600080fd5b803590602001918460018302840111640100000000831117156102f657600080fd5b91908080601f016020809104026020016040519081016040528093929190818152602001838380828437600081840152601f19601f820116905080830192505050505050509192919290505050610ab5565b005b34801561035657600080fd5b506103996004803603602081101561036d57600080fd5b81019080803573ffffffffffffffffffffffffffffffffffffffff169060200190929190505050610e1a565b6040518086815260200180602001806020018060200185151515158152602001848103845288818151815260200191508051906020019080838360005b838110156103f15780820151818401526020810190506103d6565b50505050905090810190601f16801561041e5780820380516001836020036101000a031916815260200191505b50848103835287818151815260200191508051906020019080838360005b8381101561045757808201518184015260208101905061043c565b50505050905090810190601f1680156104845780820380516001836020036101000a031916815260200191505b50848103825286818151815260200191508051906020019080838360005b838110156104bd5780820151818401526020810190506104a2565b50505050905090810190601f1680156104ea5780820380516001836020036101000a031916815260200191505b509850505050505050505060405180910390f35b34801561050a57600080fd5b506105376004803603602081101561052157600080fd5b8101908080359060200190929190505050611025565b6040518082815260200191505060405180910390f35b34801561055957600080fd5b50610562611048565b6040518082815260200191505060405180910390f35b34801561058457600080fd5b506105b16004803603602081101561059b57600080fd5b810190808035906020019092919050505061104e565b005b3480156105bf57600080fd5b506107b1600480360360808110156105d657600080fd5b81019080803590602001906401000000008111156105f357600080fd5b82018360208201111561060557600080fd5b8035906020019184600183028401116401000000008311171561062757600080fd5b91908080601f016020809104026020016040519081016040528093929190818152602001838380828437600081840152601f19601f8201169050808301925050505050505091929192908035906020019064010000000081111561068a57600080fd5b82018360208201111561069c57600080fd5b803590602001918460018302840111640100000000831117156106be57600080fd5b91908080601f016020809104026020016040519081016040528093929190818152602001838380828437600081840152601f19601f820116905080830192505050505050509192919290803590602001909291908035906020019064010000000081111561072b57600080fd5b82018360208201111561073d57600080fd5b8035906020019184600183028401116401000000008311171561075f57600080fd5b91908080601f016020809104026020016040519081016040528093929190818152602001838380828437600081840152601f19601f820116905080830192505050505050509192919290505050611114565b005b3480156107bf57600080fd5b506107ec600480360360208110156107d657600080fd5b810190808035906020019092919050505061137f565b005b3480156107fa57600080fd5b506108276004803603602081101561081157600080fd5b81019080803590602001909291905050506117b4565b005b34801561083557600080fd5b5061083e61187a565b6040518082815260200191505060405180910390f35b34801561086057600080fd5b5061088d6004803603602081101561087757600080fd5b8101908080359060200190929190505050611880565b604051808c81526020018b81526020018a8152602001806020018060200180602001891515151581526020018873ffffffffffffffffffffffffffffffffffffffff1673ffffffffffffffffffffffffffffffffffffffff16815260200187151515158152602001861515151581526020018060200185810385528d818151815260200191508051906020019080838360005b8381101561093b578082015181840152602081019050610920565b50505050905090810190601f1680156109685780820380516001836020036101000a031916815260200191505b5085810384528c818151815260200191508051906020019080838360005b838110156109a1578082015181840152602081019050610986565b50505050905090810190601f1680156109ce5780820380516001836020036101000a031916815260200191505b5085810383528b818151815260200191508051906020019080838360005b83811015610a075780820151818401526020810190506109ec565b50505050905090810190601f168015610a345780820380516001836020036101000a031916815260200191505b50858103825286818151815260200191508051906020019080838360005b83811015610a6d578082015181840152602081019050610a52565b50505050905090810190601f168015610a9a5780820380516001836020036101000a031916815260200191505b509f5050505050505050505050505050505060405180910390f35b60006002600088815260200190815260200160002090506002600088815260200190815260200160002060060160009054906101000a900460ff16151515610afc57600080fd5b338160060160016101000a81548173ffffffffffffffffffffffffffffffffffffffff021916908373ffffffffffffffffffffffffffffffffffffffff16021790555086816000018190555085816003019080519060200190610b60929190611b81565b5084816004019080519060200190610b79929190611b81565b5083816005019080519060200190610b92929190611b81565b5082816001018190555081816009019080519060200190610bb4929190611b81565b5060018160060160006101000a81548160ff0219169083151502179055506000816002018190555060056000815480929190600101919050555060048790806001815401808255809150509060018203906000526020600020016000909192909190915055507f9437a548f10838af9e78b1df9ce272d7a2eba84888b5c92e9b1422cd88ef8b7d81600001548787878787604051808781526020018060200180602001806020018681526020018060200185810385528a818151815260200191508051906020019080838360005b83811015610c9d578082015181840152602081019050610c82565b50505050905090810190601f168015610cca5780820380516001836020036101000a031916815260200191505b50858103845289818151815260200191508051906020019080838360005b83811015610d03578082015181840152602081019050610ce8565b50505050905090810190601f168015610d305780820380516001836020036101000a031916815260200191505b50858103835288818151815260200191508051906020019080838360005b83811015610d69578082015181840152602081019050610d4e565b50505050905090810190601f168015610d965780820380516001836020036101000a031916815260200191505b50858103825286818151815260200191508051906020019080838360005b83811015610dcf578082015181840152602081019050610db4565b50505050905090810190601f168015610dfc5780820380516001836020036101000a031916815260200191505b509a505050505050505050505060405180910390a150505050505050565b6003602052806000526040600020600091509050806000015490806001018054600181600116156101000203166002900480601f016020809104026020016040519081016040528092919081815260200182805460018160011615610100020316600290048015610ecc5780601f10610ea157610100808354040283529160200191610ecc565b820191906000526020600020905b815481529060010190602001808311610eaf57829003601f168201915b505050505090806002018054600181600116156101000203166002900480601f016020809104026020016040519081016040528092919081815260200182805460018160011615610100020316600290048015610f6a5780601f10610f3f57610100808354040283529160200191610f6a565b820191906000526020600020905b815481529060010190602001808311610f4d57829003601f168201915b505050505090806003018054600181600116156101000203166002900480601f0160208091040260200160405190810160405280929190818152602001828054600181600116156101000203166002900480156110085780601f10610fdd57610100808354040283529160200191611008565b820191906000526020600020905b815481529060010190602001808311610feb57829003601f168201915b5050505050908060040160009054906101000a900460ff16905085565b60048181548110151561103457fe5b906000526020600020016000915090505481565b60055481565b600060026000838152602001908152602001600020905060018160080160006101000a81548160ff02191690831515021790555060018160080160016101000a81548160ff0219169083151502179055507faf6935dfddb6a228afdcf0b5f2577d4a8be3025dc2e201df9c6f10c4920cab8c828260080160009054906101000a900460ff168360080160019054906101000a900460ff16604051808481526020018315151515815260200182151515158152602001935050505060405180910390a15050565b6000600360003373ffffffffffffffffffffffffffffffffffffffff1673ffffffffffffffffffffffffffffffffffffffff16815260200190815260200160002090508481600101908051906020019061116f929190611b81565b5083816002019080519060200190611188929190611b81565b50828160000181905550818160030190805190602001906111aa929190611b81565b5060018160040160006101000a81548160ff0219169083151502179055506006600081548092919060010191905055507f1552d75a717df458a2e6a3d2df6851f8c82aa2763421eef5468479826d9a056381600101858585604051808060200180602001858152602001806020018481038452888181546001816001161561010002031660029004815260200191508054600181600116156101000203166002900480156112995780601f1061126e57610100808354040283529160200191611299565b820191906000526020600020905b81548152906001019060200180831161127c57829003601f168201915b5050848103835287818151815260200191508051906020019080838360005b838110156112d35780820151818401526020810190506112b8565b50505050905090810190601f1680156113005780820380516001836020036101000a031916815260200191505b50848103825285818151815260200191508051906020019080838360005b8381101561133957808201518184015260208101905061131e565b50505050905090810190601f1680156113665780820380516001836020036101000a031916815260200191505b5097505050505050505060405180910390a15050505050565b6000809054906101000a900473ffffffffffffffffffffffffffffffffffffffff1673ffffffffffffffffffffffffffffffffffffffff163373ffffffffffffffffffffffffffffffffffffffff1614806114275750600160009054906101000a900473ffffffffffffffffffffffffffffffffffffffff1673ffffffffffffffffffffffffffffffffffffffff163373ffffffffffffffffffffffffffffffffffffffff16145b151561143257600080fd5b60006002600083815260200190815260200160002090508060060160019054906101000a900473ffffffffffffffffffffffffffffffffffffffff1673ffffffffffffffffffffffffffffffffffffffff16600073ffffffffffffffffffffffffffffffffffffffff16141515156114a957600080fd5b8060060160019054906101000a900473ffffffffffffffffffffffffffffffffffffffff1673ffffffffffffffffffffffffffffffffffffffff163373ffffffffffffffffffffffffffffffffffffffff161415151561150857600080fd5b60018160070160003373ffffffffffffffffffffffffffffffffffffffff1673ffffffffffffffffffffffffffffffffffffffff168152602001908152602001600020541415151561155957600080fd5b60018160070160003373ffffffffffffffffffffffffffffffffffffffff1673ffffffffffffffffffffffffffffffffffffffff1681526020019081526020016000208190555080600201600081548092919060010191905055506002816002015414156117b0577fc2f555c23b76b78740a06bbfda9d00e05b6234a7e1123d7408fe22f39eaeb81f81600001548260030183600401846005018560010154604051808681526020018060200180602001806020018581526020018481038452888181546001816001161561010002031660029004815260200191508054600181600116156101000203166002900480156116955780601f1061166a57610100808354040283529160200191611695565b820191906000526020600020905b81548152906001019060200180831161167857829003601f168201915b50508481038352878181546001816001161561010002031660029004815260200191508054600181600116156101000203166002900480156117185780601f106116ed57610100808354040283529160200191611718565b820191906000526020600020905b8154815290600101906020018083116116fb57829003601f168201915b505084810382528681815460018160011615610100020316600290048152602001915080546001816001161561010002031660029004801561179b5780601f106117705761010080835404028352916020019161179b565b820191906000526020600020905b81548152906001019060200180831161177e57829003601f168201915b50509850505050505050505060405180910390a15b5050565b600060026000838152602001908152602001600020905060008160080160006101000a81548160ff02191690831515021790555060018160080160016101000a81548160ff0219169083151502179055507f0d67bdb55aaeed6e23725fa5d4724305c94fbee065cb51988896e2288814905a828260080160009054906101000a900460ff168360080160019054906101000a900460ff16604051808481526020018315151515815260200182151515158152602001935050505060405180910390a15050565b60065481565b6002602052806000526040600020600091509050806000015490806001015490806002015490806003018054600181600116156101000203166002900480601f01602080910402602001604051908101604052809291908181526020018280546001816001161561010002031660029004801561193e5780601f106119135761010080835404028352916020019161193e565b820191906000526020600020905b81548152906001019060200180831161192157829003601f168201915b505050505090806004018054600181600116156101000203166002900480601f0160208091040260200160405190810160405280929190818152602001828054600181600116156101000203166002900480156119dc5780601f106119b1576101008083540402835291602001916119dc565b820191906000526020600020905b8154815290600101906020018083116119bf57829003601f168201915b505050505090806005018054600181600116156101000203166002900480601f016020809104026020016040519081016040528092919081815260200182805460018160011615610100020316600290048015611a7a5780601f10611a4f57610100808354040283529160200191611a7a565b820191906000526020600020905b815481529060010190602001808311611a5d57829003601f168201915b5050505050908060060160009054906101000a900460ff16908060060160019054906101000a900473ffffffffffffffffffffffffffffffffffffffff16908060080160009054906101000a900460ff16908060080160019054906101000a900460ff1690806009018054600181600116156101000203166002900480601f016020809104026020016040519081016040528092919081815260200182805460018160011615610100020316600290048015611b775780601f10611b4c57610100808354040283529160200191611b77565b820191906000526020600020905b815481529060010190602001808311611b5a57829003601f168201915b505050505090508b565b828054600181600116156101000203166002900490600052602060002090601f016020900481019282601f10611bc257805160ff1916838001178555611bf0565b82800160010185558215611bf0579182015b82811115611bef578251825591602001919060010190611bd4565b5b509050611bfd9190611c01565b5090565b611c2391905b80821115611c1f576000816000905550600101611c07565b5090565b9056fea165627a7a72305820ba05075ac74e6d0f2c30148cb49f931e65ecfe5b43e6457d5ed621fa126d3a870029",
  "source": "pragma solidity >=0.4.24;\n\ncontract HealthCare {\n    address private hospitalAdmin;\n    address private labAdmin;\n\n    struct Record {\n        uint256 ID;\n        uint256 price;\n        uint256 signatureCount;\n        string testName;\n        string date;\n        string hospitalName;\n        bool isValue;\n        address pAddr;\n        mapping(address => uint256) signatures;\n        bool isApproved;\n        bool requestAnswered;\n        string imageHash;\n    }\n\n    struct PRecord {\n        uint256 mobileNum;\n        string patientName;\n        string dob;\n        string bloodgroup;\n        bool isValue;\n     }\n    modifier signOnly {\n        require(msg.sender == hospitalAdmin || msg.sender == labAdmin);\n        _;\n    }\n\n    constructor() public {\n        hospitalAdmin = 0xb19B5755DBE7F1EEB226C64EE0479CB9C200fD1b;\n        labAdmin = 0x41b3889b82E06B0434da6a11Aa7cCc0D641dC21c;\n    }\n\n    // Mapping to store records\n    mapping(uint256 => Record) public _records;\n    mapping(address => PRecord) public _precords;\n    uint256[] public recordsArr;\n    uint256 public recordCount;\n    uint256 public precordCount;\n    event recordCreated(\n        uint256 ID,\n        string testName,\n        string date,\n        string hospitalName,\n        uint256 price,\n        string imageHash\n    );\n    event precordCreated(\n        string patientName,\n        string dob,\n        uint256 mobileNum,\n        string bloodgroup\n    );\n    event recordSigned(\n        uint256 ID,\n        string testName,\n        string date,\n        string hospitalName,\n        uint256 price\n    );\n    event approved(\n        uint256 ID,\n        bool isApproved,\n        bool requestAnswered\n    );\n    event rejected(\n        uint256 ID,\n        bool isApproved,\n        bool requestAnswered\n    );\n    // Create new record\n    function newRecord(\n        uint256 _ID,\n        string memory _tName,\n        string memory _date,\n        string memory hName,\n        uint256 price,\n        string memory _imageHash\n    ) public {\n        Record storage _newrecord = _records[_ID];\n\n        // Only allows new records to be created\n        require(!_records[_ID].isValue);\n        _newrecord.pAddr = msg.sender;\n        _newrecord.ID = _ID;\n        _newrecord.testName = _tName;\n        _newrecord.date = _date;\n        _newrecord.hospitalName = hName;\n        _newrecord.price = price;\n        _newrecord.imageHash = _imageHash;\n        _newrecord.isValue = true;\n        _newrecord.signatureCount = 0;\n        recordCount++;\n        recordsArr.push(_ID);\n        emit recordCreated(_newrecord.ID, _tName, _date, hName, price, _imageHash);\n    }\n\n    function newPatientRecord(\n        string memory _PName,\n        string memory _dob,\n        uint256 mnum,\n        string memory blood\n    ) public {\n        PRecord storage _newrecord = _precords[msg.sender];\n\n        // Only allows new records to be created\n        _newrecord.patientName = _PName;\n        _newrecord.dob = _dob;\n        _newrecord.mobileNum = mnum;\n        _newrecord.bloodgroup = blood;\n        _newrecord.isValue = true;\n        precordCount++;\n        emit precordCreated(_newrecord.patientName, _dob, mnum, blood);\n    }\n\n    function ApproveBill(uint256 _ID) public{\n         Record storage record = _records[_ID];\n         record.isApproved = true;\n         record.requestAnswered = true;\n         emit approved(_ID,record.isApproved,record.requestAnswered);\n    }\n\n     function RejectBill(uint256 _ID) public{\n         Record storage record = _records[_ID];\n         record.isApproved = false;\n         record.requestAnswered = true;\n         emit rejected(_ID,record.isApproved,record.requestAnswered);\n    }\n\n    // Function to sign a record\n    function signRecord(uint256 _ID) public signOnly {\n        Record storage records = _records[_ID];\n\n        // Checks the aunthenticity of the address signing it\n        require(address(0) != records.pAddr);\n        require(msg.sender != records.pAddr);\n\n        // Doesn't allow the same person to sign twice\n        require(records.signatures[msg.sender] != 1);\n\n        records.signatures[msg.sender] = 1;\n        records.signatureCount++;\n\n        // Checks if the record has been signed by both the authorities to process insurance claim\n        if (records.signatureCount == 2)\n            emit recordSigned(\n                records.ID,\n                records.testName,\n                records.date,\n                records.hospitalName,\n                records.price\n            );\n    }\n}\n",
  "sourcePath": "/home/rogith/Desktop/HealthCare-Insurance-Ethereum/contracts/HealthCare.sol",
  "compiler": {
    "name": "solc",
    "version": "0.5.0+commit.1d4f565a.Emscripten.clang"
  },
  "schemaVersion": "3.0.2",
  "updatedAt": "2021-03-20T13:34:29.518Z",
  "devdoc": {
    "methods": {}
  },
  "userdoc": {
    "methods": {}
  }
}