{
  "contractName": "HealthCare",
  "abi": [
    {
      "inputs": [],
      "payable": false,
      "stateMutability": "nonpayable",
      "type": "constructor"
    },
    {
      "anonymous": false,
      "inputs": [
        {
          "indexed": false,
          "internalType": "uint256",
          "name": "ID",
          "type": "uint256"
        },
        {
          "indexed": false,
          "internalType": "string",
          "name": "testName",
          "type": "string"
        },
        {
          "indexed": false,
          "internalType": "string",
          "name": "date",
          "type": "string"
        },
        {
          "indexed": false,
          "internalType": "string",
          "name": "hospitalName",
          "type": "string"
        },
        {
          "indexed": false,
          "internalType": "uint256",
          "name": "price",
          "type": "uint256"
        }
      ],
      "name": "recordCreated",
      "type": "event"
    },
    {
      "anonymous": false,
      "inputs": [
        {
          "indexed": false,
          "internalType": "uint256",
          "name": "ID",
          "type": "uint256"
        },
        {
          "indexed": false,
          "internalType": "string",
          "name": "testName",
          "type": "string"
        },
        {
          "indexed": false,
          "internalType": "string",
          "name": "date",
          "type": "string"
        },
        {
          "indexed": false,
          "internalType": "string",
          "name": "hospitalName",
          "type": "string"
        },
        {
          "indexed": false,
          "internalType": "uint256",
          "name": "price",
          "type": "uint256"
        }
      ],
      "name": "recordSigned",
      "type": "event"
    },
    {
      "constant": true,
      "inputs": [
        {
          "internalType": "uint256",
          "name": "",
          "type": "uint256"
        }
      ],
      "name": "_records",
      "outputs": [
        {
          "internalType": "uint256",
          "name": "ID",
          "type": "uint256"
        },
        {
          "internalType": "uint256",
          "name": "price",
          "type": "uint256"
        },
        {
          "internalType": "uint256",
          "name": "signatureCount",
          "type": "uint256"
        },
        {
          "internalType": "string",
          "name": "testName",
          "type": "string"
        },
        {
          "internalType": "string",
          "name": "date",
          "type": "string"
        },
        {
          "internalType": "string",
          "name": "hospitalName",
          "type": "string"
        },
        {
          "internalType": "bool",
          "name": "isValue",
          "type": "bool"
        },
        {
          "internalType": "address",
          "name": "pAddr",
          "type": "address"
        }
      ],
      "payable": false,
      "stateMutability": "view",
      "type": "function"
    },
    {
      "constant": true,
      "inputs": [],
      "name": "recordCount",
      "outputs": [
        {
          "internalType": "uint256",
          "name": "",
          "type": "uint256"
        }
      ],
      "payable": false,
      "stateMutability": "view",
      "type": "function"
    },
    {
      "constant": true,
      "inputs": [
        {
          "internalType": "uint256",
          "name": "",
          "type": "uint256"
        }
      ],
      "name": "recordsArr",
      "outputs": [
        {
          "internalType": "uint256",
          "name": "",
          "type": "uint256"
        }
      ],
      "payable": false,
      "stateMutability": "view",
      "type": "function"
    },
    {
      "constant": false,
      "inputs": [
        {
          "internalType": "uint256",
          "name": "_ID",
          "type": "uint256"
        },
        {
          "internalType": "string",
          "name": "_tName",
          "type": "string"
        },
        {
          "internalType": "string",
          "name": "_date",
          "type": "string"
        },
        {
          "internalType": "string",
          "name": "hName",
          "type": "string"
        },
        {
          "internalType": "uint256",
          "name": "price",
          "type": "uint256"
        }
      ],
      "name": "newRecord",
      "outputs": [],
      "payable": false,
      "stateMutability": "nonpayable",
      "type": "function"
    },
    {
      "constant": false,
      "inputs": [
        {
          "internalType": "uint256",
          "name": "_ID",
          "type": "uint256"
        }
      ],
      "name": "signRecord",
      "outputs": [],
      "payable": false,
      "stateMutability": "nonpayable",
      "type": "function"
    }
  ],
  "bytecode": "0x608060405234801561001057600080fd5b50336000806101000a81548173ffffffffffffffffffffffffffffffffffffffff021916908373ffffffffffffffffffffffffffffffffffffffff1602179055507341b3889b82e06b0434da6a11aa7ccc0d641dc21c600160006101000a81548173ffffffffffffffffffffffffffffffffffffffff021916908373ffffffffffffffffffffffffffffffffffffffff160217905550610f00806100b56000396000f3fe608060405234801561001057600080fd5b50600436106100575760003560e01c806317aa7fcb1461005c578063549b39fc14610259578063900407bc1461029b578063a508d0ed146102b9578063ee96b9eb146102e7575b600080fd5b610257600480360360a081101561007257600080fd5b81019080803590602001909291908035906020019064010000000081111561009957600080fd5b8201836020820111156100ab57600080fd5b803590602001918460018302840111640100000000831117156100cd57600080fd5b91908080601f016020809104026020016040519081016040528093929190818152602001838380828437600081840152601f19601f8201169050808301925050505050505091929192908035906020019064010000000081111561013057600080fd5b82018360208201111561014257600080fd5b8035906020019184600183028401116401000000008311171561016457600080fd5b91908080601f016020809104026020016040519081016040528093929190818152602001838380828437600081840152601f19601f820116905080830192505050505050509192919290803590602001906401000000008111156101c757600080fd5b8201836020820111156101d957600080fd5b803590602001918460018302840111640100000000831117156101fb57600080fd5b91908080601f016020809104026020016040519081016040528093929190818152602001838380828437600081840152601f19601f820116905080830192505050505050509192919290803590602001909291905050506104b9565b005b6102856004803603602081101561026f57600080fd5b8101908080359060200190929190505050610795565b6040518082815260200191505060405180910390f35b6102a36107b6565b6040518082815260200191505060405180910390f35b6102e5600480360360208110156102cf57600080fd5b81019080803590602001909291905050506107bc565b005b610313600480360360208110156102fd57600080fd5b8101908080359060200190929190505050610be9565b60405180898152602001888152602001878152602001806020018060200180602001861515151581526020018573ffffffffffffffffffffffffffffffffffffffff1673ffffffffffffffffffffffffffffffffffffffff168152602001848103845289818151815260200191508051906020019080838360005b838110156103a957808201518184015260208101905061038e565b50505050905090810190601f1680156103d65780820380516001836020036101000a031916815260200191505b50848103835288818151815260200191508051906020019080838360005b8381101561040f5780820151818401526020810190506103f4565b50505050905090810190601f16801561043c5780820380516001836020036101000a031916815260200191505b50848103825287818151815260200191508051906020019080838360005b8381101561047557808201518184015260208101905061045a565b50505050905090810190601f1680156104a25780820380516001836020036101000a031916815260200191505b509b50505050505050505050505060405180910390f35b60006002600087815260200190815260200160002090506002600087815260200190815260200160002060060160009054906101000a900460ff16156104fe57600080fd5b338160060160016101000a81548173ffffffffffffffffffffffffffffffffffffffff021916908373ffffffffffffffffffffffffffffffffffffffff16021790555085816000018190555084816003019080519060200190610562929190610e26565b508381600401908051906020019061057b929190610e26565b5082816005019080519060200190610594929190610e26565b5081816001018190555060018160060160006101000a81548160ff0219169083151502179055506000816002018190555060046000815480929190600101919050555060038690806001815401808255809150509060018203906000526020600020016000909192909190915055507fc20f59e9d68948c943c420ad03b09ad5b4b7feccfe038eb67e9845033df38e1081600001548686868660405180868152602001806020018060200180602001858152602001848103845288818151815260200191508051906020019080838360005b83811015610681578082015181840152602081019050610666565b50505050905090810190601f1680156106ae5780820380516001836020036101000a031916815260200191505b50848103835287818151815260200191508051906020019080838360005b838110156106e75780820151818401526020810190506106cc565b50505050905090810190601f1680156107145780820380516001836020036101000a031916815260200191505b50848103825286818151815260200191508051906020019080838360005b8381101561074d578082015181840152602081019050610732565b50505050905090810190601f16801561077a5780820380516001836020036101000a031916815260200191505b509850505050505050505060405180910390a1505050505050565b600381815481106107a257fe5b906000526020600020016000915090505481565b60045481565b6000809054906101000a900473ffffffffffffffffffffffffffffffffffffffff1673ffffffffffffffffffffffffffffffffffffffff163373ffffffffffffffffffffffffffffffffffffffff1614806108645750600160009054906101000a900473ffffffffffffffffffffffffffffffffffffffff1673ffffffffffffffffffffffffffffffffffffffff163373ffffffffffffffffffffffffffffffffffffffff16145b61086d57600080fd5b60006002600083815260200190815260200160002090508060060160019054906101000a900473ffffffffffffffffffffffffffffffffffffffff1673ffffffffffffffffffffffffffffffffffffffff16600073ffffffffffffffffffffffffffffffffffffffff1614156108e257600080fd5b8060060160019054906101000a900473ffffffffffffffffffffffffffffffffffffffff1673ffffffffffffffffffffffffffffffffffffffff163373ffffffffffffffffffffffffffffffffffffffff16141561093f57600080fd5b60018160070160003373ffffffffffffffffffffffffffffffffffffffff1673ffffffffffffffffffffffffffffffffffffffff16815260200190815260200160002054141561098e57600080fd5b60018160070160003373ffffffffffffffffffffffffffffffffffffffff1673ffffffffffffffffffffffffffffffffffffffff168152602001908152602001600020819055508060020160008154809291906001019190505550600281600201541415610be5577fc2f555c23b76b78740a06bbfda9d00e05b6234a7e1123d7408fe22f39eaeb81f8160000154826003018360040184600501856001015460405180868152602001806020018060200180602001858152602001848103845288818154600181600116156101000203166002900481526020019150805460018160011615610100020316600290048015610aca5780601f10610a9f57610100808354040283529160200191610aca565b820191906000526020600020905b815481529060010190602001808311610aad57829003601f168201915b5050848103835287818154600181600116156101000203166002900481526020019150805460018160011615610100020316600290048015610b4d5780601f10610b2257610100808354040283529160200191610b4d565b820191906000526020600020905b815481529060010190602001808311610b3057829003601f168201915b5050848103825286818154600181600116156101000203166002900481526020019150805460018160011615610100020316600290048015610bd05780601f10610ba557610100808354040283529160200191610bd0565b820191906000526020600020905b815481529060010190602001808311610bb357829003601f168201915b50509850505050505050505060405180910390a15b5050565b6002602052806000526040600020600091509050806000015490806001015490806002015490806003018054600181600116156101000203166002900480601f016020809104026020016040519081016040528092919081815260200182805460018160011615610100020316600290048015610ca75780601f10610c7c57610100808354040283529160200191610ca7565b820191906000526020600020905b815481529060010190602001808311610c8a57829003601f168201915b505050505090806004018054600181600116156101000203166002900480601f016020809104026020016040519081016040528092919081815260200182805460018160011615610100020316600290048015610d455780601f10610d1a57610100808354040283529160200191610d45565b820191906000526020600020905b815481529060010190602001808311610d2857829003601f168201915b505050505090806005018054600181600116156101000203166002900480601f016020809104026020016040519081016040528092919081815260200182805460018160011615610100020316600290048015610de35780601f10610db857610100808354040283529160200191610de3565b820191906000526020600020905b815481529060010190602001808311610dc657829003601f168201915b5050505050908060060160009054906101000a900460ff16908060060160019054906101000a900473ffffffffffffffffffffffffffffffffffffffff16905088565b828054600181600116156101000203166002900490600052602060002090601f016020900481019282601f10610e6757805160ff1916838001178555610e95565b82800160010185558215610e95579182015b82811115610e94578251825591602001919060010190610e79565b5b509050610ea29190610ea6565b5090565b610ec891905b80821115610ec4576000816000905550600101610eac565b5090565b9056fea265627a7a723158206fad7f9789fddb43ca1bf65157aa665df3aada1b166828ce4c1919d360c15e3964736f6c63430005100032",
  "source": "pragma solidity ^0.5.16;\r\n\r\ncontract HealthCare {\r\n\r\n    address private hospitalAdmin;\r\n    address private labAdmin;\r\n\r\n    struct Record {\r\n        uint256 ID;\r\n        uint256 price;\r\n        uint256 signatureCount;\r\n        string testName;\r\n        string date;\r\n        string hospitalName;\r\n        bool isValue;\r\n        address pAddr;\r\n        mapping (address => uint256) signatures;\r\n    }\r\n\r\n    modifier signOnly {\r\n        require (msg.sender == hospitalAdmin || msg.sender == labAdmin );\r\n        _;\r\n    }\r\n\r\n    constructor() public {\r\n        hospitalAdmin = msg.sender;\r\n        labAdmin = 0x41b3889b82E06B0434da6a11Aa7cCc0D641dC21c;     //assigning a hard coded address from ganache                   \r\n    }\r\n    \r\n    \r\n    // Mapping to store records\r\n    mapping (uint256=> Record) public _records;\r\n    uint256[] public recordsArr;\r\n    uint public recordCount;\r\n    event recordCreated(uint256 ID, string testName, string date, string hospitalName, uint256 price);\r\n    event recordSigned(uint256 ID, string testName, string date, string hospitalName, uint256 price);\r\n    \r\n    // Create new record\r\n    function newRecord (uint256 _ID, string memory _tName, string memory _date, string memory hName, uint256 price) public{\r\n        Record storage _newrecord = _records[_ID];\r\n\r\n        // Only allows new records to be created\r\n        require(!_records[_ID].isValue);\r\n            _newrecord.pAddr = msg.sender;\r\n            _newrecord.ID = _ID;\r\n            _newrecord.testName = _tName;\r\n            _newrecord.date = _date;\r\n            _newrecord.hospitalName = hName;\r\n            _newrecord.price = price;\r\n            _newrecord.isValue = true;\r\n            _newrecord.signatureCount = 0;\r\n        recordCount++;\r\n        recordsArr.push(_ID);\r\n        emit  recordCreated(_newrecord.ID, _tName, _date, hName, price);\r\n    }\r\n\r\n    // Function to sign a record \r\n    function signRecord(uint256 _ID) signOnly public {\r\n        Record storage records = _records[_ID];\r\n        \r\n        // Checks the aunthenticity of the address signing it\r\n        require(address(0) != records.pAddr);\r\n        require(msg.sender != records.pAddr);\r\n        \r\n        // Doesn't allow the same person to sign twice\r\n        require(records.signatures[msg.sender] != 1);\r\n\r\n        records.signatures[msg.sender] = 1;\r\n        records.signatureCount++;\r\n\r\n        // Checks if the record has been signed by both the authorities to process insurance claim\r\n        if(records.signatureCount == 2)\r\n            emit  recordSigned(records.ID, records.testName, records.date, records.hospitalName, records.price);\r\n\r\n    }\r\n}\r\n",
  "sourcePath": "C:/Users/varun/Desktop/PHASE-I/healthcare/contracts/HealthCare.sol",
  "compiler": {
    "name": "solc",
    "version": "0.5.16+commit.9c3226ce.Emscripten.clang"
  },
  "schemaVersion": "3.3.1",
  "updatedAt": "2020-11-13T10:01:09.112Z",
  "networkType": "ethereum",
  "devdoc": {
    "methods": {}
  },
  "userdoc": {
    "methods": {}
  }
}